:100000000C94C1010C94E2010C94E2010C94E20105
:100010000C94E2010C94E2010C94E2010C94E201D4
:100020000C94E2010C941C2F0C94E2010C94B33953
:100030000C94E2010C94E2010C94E2010C94E201B4
:100040000C94E2010C9431200C94E2010C94E20136
:100050000C94E2010C94E2010C94E2010C94A817B8
:100060000C94E2010C9486130C9445130C94E20159
:100070000C94E2010C94E2010C94E2010C94E20174
:100080000C94E2010C94E2010C94E2010C94153CF6
:100090000C94E2010C94E2010C94E2010C94E20154
:1000A0000C94E2010C94E2010C94E2010C94E20144
:1000B0000C94E2010C94E2010C94E2010C94E20134
:1000C0000C94E2010C94E2010C94E2010C94E20124
:1000D0000C94E2010C94E2010C94E2010C94E20114
:1000E0000C94E201C513C713FF13FF13FF13FF1393
:1000F000FF13FF13FF13FF13FF13FF13CD13CF13D2
:10010000D113D313D513D713D913DB13FF13DF1375
:10011000E113E313E513E713E913FF13EB13ED13F7
:1001200074247B247E248124862490249A243825D8
:1001300038253825A924AC24B524BE2438253825F3
:100140003825382538253825CC24DA24E824F2242B
:10015000F524FE2407250C253825382515251E25D0
:100160002925084AD73B3BCE016E84BCBFFDC12F79
:100170003D6C74319ABD56833DDA3D00C77F11BE98
:10018000D9E4BB4C3E916BAAAABE000000803F059B
:10019000A84CCDB2D44EB93836A9020C50B99186CC
:1001A00088083CA6AAAA2ABE000000803F7C413AEB
:1001B000007C4F763A007C57434F3A007C506E3AB1
:1001C000007C46533A007C4C6E3A007C42663A0012
:1001D0007C57506F733A007C4D506F733A00536CEC
:1001E00065657000446F6F723A00436865636B0029
:1001F000416C61726D00486F6D65004A6F67004821
:100200006F6C643A0052756E0049646C65000D0AAB
:10021000005B6563686F3A20005B4F50543A005BA7
:100220005645523A312E31652E3230313730313128
:10023000343A00244E00205300204600205400335E
:10024000382E005B47433A4700204700204D005BB3
:10025000544C4F3A005B4739323A00333000323861
:10026000005B47005B5052423A005B484C503A24D6
:100270002420242320244720244920244E2024788D
:100280003D76616C20244E783D6C696E6520244A71
:100290003D6C696E652024534C5020244320245823
:1002A000202448207E2021203F206374726C2D780A
:1002B0005D0D0A000D0A4772626C20312E316520F7
:1002C0005B27242720666F722068656C705D0D0ABD
:1002D00000536C656570696E6700526573746F7268
:1002E000696E67207370696E646C65005265737423
:1002F0006F72696E672064656661756C7473005017
:10030000676D20456E6400436865636B204C696DC2
:1003100069747300436865636B20446F6F720044B7
:10032000697361626C656400456E61626C6564004E
:1003300043617574696F6E3A20556E6C6F636B65BF
:100340006400272448277C2724582720746F2075B1
:100350006E6C6F636B00526573657420746F2063FD
:100360006F6E74696E7565005B4D53473A00414C82
:1003700041524D3A006572726F723A006F6B0D0A0E
:10038000000011241FBECFEFD1E2DEBFCDBF00E0E1
:100390000CBF12E0A0E0B2E0E8E7F1E800E00BBF3C
:1003A00002C007900D92A030B107D9F71FE0A0E07E
:1003B000B2E001C01D92AD3FB107E1F70E94E40138
:1003C0000C94BA400C940000DF92EF92FF920F93CE
:1003D0001F93CF93DF930E941B130E9406270E9456
:1003E000BE170E94BE3880E1E9EFFCE0DF011D92FC
:1003F0008A95E9F778941092D50C8091EB0F84FFE1
:1004000003C081E08093D50C95EDE92E9CE0F92E98
:1004100081E1D82E14E6C9EEDCE000E18091D50C34
:10042000F7019D2D11929A95E9F78093D50C1093C1
:10043000DC0C1093DD0C1093DE0CDE01E02F1D921E
:10044000EA95E9F71092E80C1092E70C1092090D6A
:100450001092D40C1092E60C0E9481130E94371166
:100460000E944B110E94BC120E94D42E0E942D3378
:100470000E94033C0E94182A0E94FF1F0E94A3288A
:100480000E9420060E9467330E94F616C7CF809113
:10049000E70C84FD1DC080E10E9471390E94A21109
:1004A0000E94DD129091D50C892F8C7221F48091DD
:1004B000D90C867069F0943031F48091090D88234D
:1004C00029F486E001C083E00E9484390E94CF1F96
:1004D00008950E94F22E84E00E94802F83E00E9403
:1004E000802F0E94CE158091D60C882331F40E9473
:1004F00020060E94A3280E94D42E0895EF92FF9216
:100500000F931F937B018C018091D50C823039F0C1
:100510000E94E516C801B70140E00E94A02E1F917D
:100520000F91FF90EF9008950F931F93CF93DF9358
:10053000EC018B018091EB0F85FF07C08091D50CFA
:10054000803219F0CE010E94FD2E8091D50C8230B0
:1005500089F00E94CE158091D60C882359F40E9410
:10056000B327882319F00E94DD16F3CFCE01B8011E
:100570000E94292ADF91CF911F910F910895CF9268
:10058000DF92EF92FF921F93CF93DF937C016B0179
:10059000142F8091D50C823011F480E062C00E944B
:1005A000E5168091D60C882309F05AC0C12FD0E0FF
:1005B0001092DA0CCE0123E0969587952A95E1F703
:1005C00081700E941B330E943B33882349F084E0F2
:1005D0000E9484390E94CE1580E00E941B3340C0E7
:1005E000C701B6010E94940281E08093E80C82E08A
:1005F0000E9471390E94CE158091D60C882381F516
:100600008091D50C8823B1F78091E80C813081F47A
:10061000C4FF0AC0A9EEBCE0E9EFFCE080E1019074
:100620000D928150E1F707C085E00E94843903C034
:1006300081E08093DA0C1092E80C80E00E941B337A
:100640000E94CE150E94FF1F0E94182A0E94A32814
:100650000E94CB378091DA0C882319F081E001C029
:1006600082E0DF91CF911F91FF90EF90DF90CF90CC
:1006700008952F923F924F925F926F927F928F9246
:100680009F92AF92BF92CF92DF92EF92FF920F9321
:100690001F93DF93CF93CDB7DEB7ED970FB6F894E6
:1006A000DEBF0FBECDBF9CAB8BAB7EAB6DAB58AF8F
:1006B0004FAB3901E9AEFAAE0BAF1CAF1A2D8DAEC0
:1006C0008C2C9924880C991C880C991C9A01280D53
:1006D000391D3AAB29ABC301880D991D98AB8FA783
:1006E000DC01AD90BD90CD90DC90C601B501F90163
:1006F00020813181428153810E94673C6DA37EA39A
:100700008FA398A7412E5524440C551C440C551C0E
:100710002FA938AD240D351D3EA72DA7C301840D8B
:10072000951D9CA78BA7DC01ED90FD900D911C9170
:10073000C801B701F90120813181428153810E94B2
:10074000673C69A37AA38BA39CA3D601C501B058CB
:100750008D8F9E8FAF8FB8A3D801C701B058898FF6
:100760009A8FAB8FBC8FABA9BCA98A0E9B1EF401DC
:1007700060817181828193812DA13EA14FA158A5F5
:100780000E94663C3B014C012BA93CA9420E531E22
:10079000D2016D917D918D919C9129A13AA14BA19E
:1007A0005CA10E94663C5B016C016D8D7E8D8F8D1E
:1007B00098A1A60195010E947E3F7B018C01698D65
:1007C0007A8D8B8D9C8DA40193010E947E3F9B01AD
:1007D000AC01C801B7010E94663C1B012C016D8D64
:1007E0007E8D8F8D98A1A40193010E947E3F7B0195
:1007F0008C01698D7A8D8B8D9C8DA60195010E944F
:100800007E3F9B01AC01C801B7010E94673C9B0180
:10081000AC01C201B1010E94DA3C5B016C0164963B
:100820008FAD6497882399F0C601B5012DEB37E3AE
:1008300046E055EB0E94433F8823ECF0C601B5012A
:100840002BED3FE049EC50E40E94663C12C0C6012B
:10085000B5012DEB37E346E055E30E94403D181605
:1008600054F0C601B5012BED3FE049EC50E40E9485
:10087000673C5B016C01E090DF0FF090E00F0091AE
:10088000E10F1091E20F69AD7AAD8BAD9CAD9B018C
:10089000AC010E94673CA80197010E94663C9B0145
:1008A000AC01C801B7010E947E3F0E940B407B0152
:1008B0008C01C601B50120E030E040E05FE30E941A
:1008C0007E3F29AD3AAD4BAD5CAD0E947E3F9F7738
:1008D000A80197010E94473D0E941D3E0E94B43D21
:1008E000788F6F8B6115710509F48BC1EDA9FEA995
:1008F000148513FF16C080E090E00E94E03D9B014C
:10090000AC01ADA9BEA96D917D918D919C910E9484
:100910007E3FEDA9FEA96083718382839383177F55
:1009200014872F89388DB90180E090E00E94E03D66
:100930007B018C01C601B501A80197010E94473DCA
:100940006B8B7C8B8D8B9E8B3DADE32FF0E0EE0FA0
:10095000FF1FEE0FFF1F8FA998AD8E0F9F1F9AA745
:1009600089A7ABA9BCA9EA0FFB1F608171818281B5
:100970009381E9A5FAA520813181428153810E94AA
:10098000663CA80197010E94473D6F87788B898B51
:100990009A8B6B897C898D899E899B01AC010E9411
:1009A0007E3F9B01AC0160E070E080E090E40E943B
:1009B000663C5B016C016B897C898D899E892BEA81
:1009C0003AEA4AE25EE30E947E3F7B018C01C60167
:1009D000B50120E030E040E850E40E94673C9B0114
:1009E000AC01C801B7010E947E3F6B877C878D8771
:1009F0009E87C601B50120E030E040E05FE30E9441
:100A00007E3F69837A838B839C8321E030E03E8341
:100A10002D839924EEC03BE0391508F446C06D8D56
:100A20007E8D8F8D98A12B853C854D855E850E949E
:100A30007E3F7B018C01698D7A8D8B8D9C8D298108
:100A40003A814B815C810E947E3F9B01AC01C801D1
:100A5000B7010E94673C7B018C016D8D7E8D8F8D6F
:100A600098A129813A814B815C810E947E3F5B0184
:100A70006C01698D7A8D8B8D9C8D2B853C854D8588
:100A80005E850E947E3F9B01AC01C601B5010E94BC
:100A9000663C6D8F7E8F8F8F98A39394C701D8018A
:100AA000898F9A8FAB8FBC8F61C0AD81BE81BD0134
:100AB00080E090E00E94E03D2B893C894D895E8971
:100AC0000E947E3F7B018C01C8010E94443D6F83E0
:100AD000788789879A87B701C8010E9401403B0146
:100AE0004C01EFA5F8A9E080F1800281138117FB8A
:100AF000109517F91095ABA5BCA52D903D904D9084
:100B00005C90C801B7012F81388549855A850E94BC
:100B10007E3F5B016C01C201B101A40193010E94FF
:100B20007E3F9B01AC01C601B5010E94673C6D8F01
:100B30007E8F8F8F98A3C801B701A40193010E94F3
:100B40007E3F7B018C01C201B1012F81388549852F
:100B50005A850E947E3F9B01AC01C801B7010E94EB
:100B6000663C698F7A8F8B8F9C8F99246DA17EA1B3
:100B70008FA198A52D8D3E8D4F8D58A10E94673C69
:100B8000E9A9FAA9608371838283938369A17AA119
:100B90008BA19CA1298D3A8D4B8D5C8D0E94673C69
:100BA000ADA5BEA56D937D938D939C931397E9A5F9
:100BB000FAA560817181828193812F853889498965
:100BC0005A890E94673CA9A5BAA56D937D938D9320
:100BD0009C9313978FA998AD6DA97EA90E9494024A
:100BE0008091D60C882399F4ED81FE813196FE83A5
:100BF000ED832D813E818F89988D2817390708F460
:100C00000ACF8BA99CA96DA97EA90E949402ED969A
:100C10000FB6F894DEBF0FBECDBFCF91DF911F910D
:100C20000F91FF90EF90DF90CF90BF90AF909F908B
:100C30008F907F906F905F904F903F902F9008958E
:100C400081E29DE069EF7CE00E940B3908952F92CC
:100C50003F924F925F926F927F928F929F92AF924C
:100C6000BF92CF92DF92EF92FF920F931F93DF9389
:100C7000CF93CDB7DEB7E4970FB6F894DEBF0FBEC3
:100C8000CDBF2C01E5E5FDE081E4DF011D928A95F1
:100C9000E9F73196AAE0BDE08AE00D90019281501B
:100CA000E1F7F2018081843211F01BA20EC081E0D5
:100CB0008093560D1092570D1092750D1092760D6F
:100CC0001092770D1092780D8BA3FBA18F2F90E0DF
:100CD0009C01217030703CAB2BABF0FF11C083E066
:100CE00089831EA619A618A61FA21EA21DA21CA2B9
:100CF00051E0252E312C4EE5D42E33E0B32EBBC26D
:100D00001982EFCF8A2D81548A3118F081E00C943A
:100D100018119F5F9983C201BE016F5F7F4FAE01C3
:100D20004E5F5F4F0E94E42C882319F482E00C94FC
:100D30001811EA80FB800C811D81C801B7010E9457
:100D40004C400E94B43D3B014C01C62E70E0882708
:100D500077FD8095982F0E94E23D9B01AC01C80170
:100D6000B7010E94663C20E030E048EC52E40E946B
:100D70007E3F0E94E13F0E94B43D9B0147E4A416E0
:100D800029F0ADE4AA1609F061C1FDC0B8E26B1606
:100D900009F45CC0B61548F1E3E1E61588F0F1E12D
:100DA0006F1608F09EC044E0641609F45BC0641638
:100DB00008F471C08AE0681611F00C94051148C05F
:100DC0009CE1691609F444C0961530F0A5E1A6151A
:100DD00010F40C940511A6C0BEE16B16C9F1E6E251
:100DE0006E1611F00C94051156C0FDE36F1609F450
:100DF000BEC0F615A8F045E36416A1F1461550F003
:100E00008BE2681609F494C091E3691611F00C9412
:100E100005118EC0ABE3A61510F40C940511A1C00A
:100E2000BBE5B61550F0EAE56E1608F060C0F0E5D7
:100E30006F1611F00C94051135C04CE5641641F0A5
:100E40008EE5861510F40C94051166C087E096C0F7
:100E50002115310539F49EA5992311F00C94031145
:100E6000A1E0AEA7C092550DBCE1CB1639F0EEE182
:100E7000CE1621F0FCE5CF1609F07FC02115310513
:100E800029F02A30310511F00C940511C20EC092E0
:100E9000550D80E0C6C04EA5442311F00C940311FB
:100EA00082E08EA7C092560D96E2C91611F081E03D
:100EB00065C02431310559F02E31310541F0283219
:100EC000310529F02233310511F00C940511C901C7
:100ED0006AE070E00E94774066576093560D81E0AB
:100EE000A0C0AFEECA0EC0925A0D82E047C0611595
:100EF000710531F4B6EACB0EC092590D83E091C072
:100F00006A30710511F00C940511EAE56E1611F0C6
:100F10000C9431110C9405118D2D86198093570D69
:100F200085E02CC085E186198093580D86E026C0A7
:100F3000FEA5FF2311F00C94031141E3C41629F41C
:100F400010925B0D83E08EA70AC02A30310511F0A4
:100F50000C94051191E090935B0DA3E0AEA788E09F
:100F600060C0BAECCB0EC0925C0D89E007C0672B65
:100F700011F40C9434110C94051180E0232B09F426
:100F800050C00C940711672B11F00C940711F5E079
:100F9000F61520F023E06216D8F40DC037E0631692
:100FA00010F40C94051149E0461538F58EE16816E9
:100FB00011F00C940511CC2021F091E0C91621F418
:100FC00005C0B0925D0D02C0C0925D0D8BE029C0DE
:100FD000A4E06A1651F0B5E06B1661F0E3E06E161E
:100FE00039F4F0E1F0935F0D03C020E220935F0D30
:100FF0008CE017C010925F0DFBCF38E0631651F004
:1010000049E0641659F087E0681651F490E890932F
:101010005E0D06C0A0E4A0935E0D02C010925E0DAE
:101020008DE0910102C0220F331F8A95E2F78EA155
:101030009FA182239323892B11F00C940911EEA117
:10104000FFA1E22BF32BFFA3EEA315C1FEE4AF1625
:1010500009F481C0FA15E4F029E4A21609F450C09D
:101060002A154CF031E4A316A1F146E4A41611F0C0
:101070000C9405113BC08BE4A81609F45BC0A816BC
:101080000CF44BC09CE4A91611F00C9405115FC040
:10109000A4E5AA1609F48BC0AA156CF0B2E5AB164C
:1010A00009F471C0BA150CF478C0E0E5AE1611F081
:1010B0000C9405115EC0F9E5AF1609F496C02AE557
:1010C000A21609F49FC038E5A31611F00C9405117F
:1010D0007FC0E092920DF092930D0093940D1093C7
:1010E000950D49A5486049A72DE098C0E092600D94
:1010F000F092610D0093620D1093630D20E08EC09D
:10110000E092640DF092650D0093660D1093670DEB
:1011100088A5816088A721E081C0E092680DF092E7
:10112000690D00936A0D10936B0D98A5926098A7B6
:1011300022E074C0E0926C0DF0926D0D00936E0D84
:1011400010936F0DA8A5A460A8A723E067C06092C4
:10115000740D24E063C0C801B7010E94AF3D6093E5
:10116000750D7093760D8093770D9093780D25E033
:1011700055C0E092790DF0927A0D00937B0D10939B
:101180007C0D26E04BC0E0927D0DF0927E0D009329
:101190007F0D1093800D27E041C0E092810DF09209
:1011A000820D0093830D1093840D28E037C0C80191
:1011B000B70120E030E04FE753E40E94433F1816A8
:1011C0001CF486E20C9418116092850D29E026C06B
:1011D000E092860DF092870D0093880D1093890D93
:1011E000B9A5B160B9A72AE019C0E0928A0DF092C2
:1011F0008B0D00938C0D10938D0DE9A5E260E9A78E
:101200002BE00CC0E0928E0DF0928F0D0093900DAC
:101210001093910DF9A5F460F9A72CE08101022E3D
:1012200002C0000F111F0A94E2F78CA19DA1802338
:101230009123892B19F089E10C94181181E693E030
:1012400002C0959587952A95E2F780FF0EC06A81C6
:101250007B818C819D8120E030E040E050E00E9465
:10126000403D882314F484E0E3C72CA13DA1202B4A
:10127000312B3DA32CA39981F201E90FF11DA08030
:10128000AA2009F03FCD39A5332329F04EA54423E8
:1012900011F482E08EA79CA195FF0FC08091750D7F
:1012A0009091760DA091770DB091780D8158964967
:1012B000A849B04014F08BE1BBC72BA93CA9232B54
:1012C00021F03CA130FD19C0A6C78091570D813097
:1012D00069F44EA54230E1F58091560D8035C1F19B
:1012E0008823B1F18CA180FD33C095C780910B0D8F
:1012F000882371F59CA190FF1BC08091580D81300F
:1013000039F56091600D7091610D8091620D909141
:10131000630D23E333E34BEC51E40E947E3F609383
:10132000600D7093610D8093620D9093630D10C0FA
:101330008091180D9091190DA0911A0DB0911B0D6F
:101340008093600D9093610DA093620DB093630D37
:10135000ACA1BDA1B0FD10C08091140D9091150DF0
:10136000A091160DB091170D8093810D9093820D71
:10137000A093830DB093840D8091550D843041F47A
:10138000BCA1B6FF4AC7ECA1FDA1EF7BFDA3ECA376
:1013900080915A0D882341F0813061F4F2E0FDA77D
:1013A0001CA621E02BA70BC01DA631E03CA742E004
:1013B0004BA705C081E08DA792E09CA71BA680915A
:1013C000580D813061F526E8E22E2DE0F22E00E086
:1013D00010E0A9A5CA2EDD24C601002E02C09595F5
:1013E00087950A94E2F780FF11C0F701608171814F
:1013F0008281938123E333E34BEC51E40E947E3FEF
:10140000D7016D937D938D939C9313970F5F1F4F1F
:10141000E4E0F0E0EE0EFF1E04301105E9F6FEA553
:10142000F33049F480915B0D813029F429A52430F3
:1014300011F085E2FDC6DE015396E1E3FDE080E1B7
:1014400001900D928150E1F78EA19FA191FF12C0F2
:1014500090915C0D973008F0E2C68091100D8917CD
:1014600049F0892FBE016D5E7F4F0E947A25882347
:1014700009F4D7C68091550D8A3021F08C3509F0DA
:1014800003C19FC099A5992309F4CDC68CA19DA144
:1014900080759070892B09F4C0C66091790D7091A8
:1014A0007A0D80917B0D90917C0D0E944C400E94A2
:1014B000B43D673008F0B3C62091740D243131F08B
:1014C000223009F0A2C6ACA1A7FD9FC6662319F081
:1014D00061506AA703C0B0915C0DBAA78AA564E603
:1014E0007DE00E947A25882309F49BC604E61DE06E
:1014F00092E2692E712C600E711E81E2882E8DE0C1
:10150000982EEE24FF24E9A5CE2EDD24C6010E2C54
:1015100002C0959587950A94E2F780FF3CC08091C0
:10152000740D843171F5D4016D917D918D919C91F3
:10153000139790962D913D914D915C9193970E94B8
:10154000663CF30120813181428153810E94663CD7
:10155000D8016D937D938D939C931397B2E0EB1616
:10156000D1F42091510D3091520D4091530D509175
:10157000540D0E94663CF8016083718382839383DB
:101580000AC0F30180819181A281B381F801808337
:101590009183A283B3830894E11CF11C0C5F1F4F5D
:1015A00024E030E0620E731E820E931E34E0E316D8
:1015B000F10409F0ABCF8CA19DA18F7A9DA38CA3E0
:1015C00028C199A5992309F42EC606E81DE0B1E2C9
:1015D0008B2EBDE09B2EA3E16A2E712C6C0E7D1E1E
:1015E000EE24FF24C92EDD24C6010E2C02C09595E1
:1015F00087950A94E2F780FF2CC0D4016D917D910C
:101600008D919C91F30120813181428153810E940F
:10161000663CD8012D913D914D915C910E94663CB4
:10162000F8016083718382839383F2E0EF16D9F42B
:101630002091510D3091520D4091530D5091540D08
:101640000E94663CD8016D937D938D939C93139774
:101650000AC0F40180A191A1A2A1B3A1F8018083E5
:101660009183A283B3830894E11CF11C0C5F1F4F8C
:1016700024E030E0820E931E620E731E34E0E31607
:10168000F10409F0B1CFC4C04EA5433009F47DC0C8
:1016900089A5882309F479C0F1E28F2EFDE09F2E01
:1016A00006E81DE0E3E1CE2ED12CCC0EDD1EEE24AB
:1016B000FF24A82EBB24C5010E2C02C0959587954A
:1016C0000A94E2F780FD0BC0F40180819181A28130
:1016D000B381F80180839183A283B38346C0809154
:1016E000550D853309F441C08091590D882361F56A
:1016F000D6016D917D918D919C91F40120A131A134
:1017000042A153A10E94673CD8012D913D914D917A
:101710005C910E94673CF8016083718382839383AC
:10172000F2E0EF1611F52091510D3091520D4091DC
:10173000530D5091540D0E94673CD8016D937D93D9
:101740008D939C93139711C0F80160817181828100
:101750009381D4012D913D914D915C910E94673C04
:10176000F80160837183828393830894E11CF11CE8
:1017700024E030E0820E931E0C5F1F4FC20ED31E7A
:1017800034E0E316F10409F096CF8091550D8E31C7
:1017900021F08533B9F18C31D9F58C3111F486E023
:1017A00001C087E064E67DE00E947A25882309F481
:1017B00038C549A5442311F41EA62AC041E25DE0C4
:1017C000E4E6FDE020E030E089A5682F70E0CB0181
:1017D000022E02C0959587950A94E2F780FD09C014
:1017E000DA01ED90FD900D911C91E082F18202836F
:1017F00013832F5F3F4F4C5F5F4F3496243031058A
:1018000031F706C08091560D823010F08EE110C580
:101810001AA61091560D103531F4B9A5BB2309F461
:1018200054C28FE105C5EEA5E23009F04EC2112386
:1018300029F4F9A5FF2309F447C247C26091600D5E
:101840007091610D8091620D9091630D20E030E008
:1018500040E050E00E94403D882309F4DCC41C387D
:1018600009F41DC21D3840F41230A9F01330B1F054
:10187000113009F02AC20AC01E3809F410C21E38FD
:1018800008F40AC21F3809F020C206C229A5222383
:1018900009F41AC21AC23BA134603BA349A54423F0
:1018A00009F4C1C49DA5892F90E09AAB89ABBCA572
:1018B000AB2FB0E0B8ABAFA781E090E08C010FA4F4
:1018C00002C0000F111F0A94E2F709A802C0880F96
:1018D000991F0A94E2F7082B192B842F90E080239C
:1018E0009123892B11F480E2A3C4E9A9FAA9EE0F90
:1018F000FF1FEE0FFF1FDF01A65FB24FEB5AF24F43
:1019000061A972A983A994A957962D913D914D91F2
:101910005C915A970E94663C5B016C01EFA5F8A9A7
:10192000EE0FFF1FEE0FFF1FDF01A65FB24FEB5A56
:10193000F24F61A972A983A994A957962D913D915F
:101940004D915C915A970E94663C1B012C01ECA1C1
:10195000E7FFF0C081E29DE066E87DE040E150E015
:101960000E94AD40009709F460C48091580D813009
:10197000B1F460917D0D70917E0D80917F0D9091FD
:10198000800D23E333E34BEC51E40E947E3F6093F0
:101990007D0D70937E0D80937F0D9093800DE09070
:1019A0007D0DF0907E0D00917F0D1091800DC8018E
:1019B000B70120E030E040E850E40E947E3FA801FB
:1019C00097010E947E3F7B018C01C601B501A601F3
:1019D00095010E947E3F9B01AC01C801B7010E94A6
:1019E000663C7B018C01C201B101A20191010E9400
:1019F0007E3F9B01AC01C801B7010E94663C7B01A0
:101A00008C0120E030E040E050E00E94403D88231F
:101A100014F482E20DC4C801B7010E940B407B019F
:101A20008C01C601B501A20191010E94772E9B0194
:101A3000AC0117FB109517F91095C801B7010E946A
:101A4000473D7B018C018091560D833021F417FBBB
:101A5000109517F9109560907D0D70907E0D809017
:101A60007F0D9090800DC401B30120E030E040E094
:101A700050E00E94403D88237CF417FB109517F935
:101A80001095D401C301B05880937D0D90937E0DC5
:101A9000A0937F0DB093800D2CA13DA12F773DA386
:101AA0002CA389A99AA9880F991F880F991F875A73
:101AB000924F9AAB89ABC201B101A80197010E9474
:101AC0007E3F9B01AC01C601B5010E94663C20E04F
:101AD00030E040E05FE30E947E3FA9A9BAA91B96CF
:101AE0006D937D938D939C931E97EFA5F8A9EE0FB0
:101AF000FF1FEE0FFF1FE75AF24FF8ABEFA7C6012B
:101B0000B501A80197010E947E3F9B01AC01C20173
:101B1000B1010E94673C20E030E040E05FE30E94BA
:101B20007E3FAFA5B8A91B966D937D938D939C9333
:101B30001E97CBC0B8A58B2E992408211921012B03
:101B400011F483E275C3ECA1FDA1E17FFDA3ECA339
:101B50008091580D813041F534E6E32E3DE0F32EBF
:101B600000E010E0C401002E02C0959587950A940C
:101B7000E2F780FF10C0D7016D917D918D919C910E
:101B800023E333E34BEC51E40E947E3FF701608393
:101B90007183828393830F5F1F4F24E030E0E20E56
:101BA000F31E04301105F1F6E9A8FAA8EE0CFF1CAB
:101BB000EE0CFF1C89E59DE0E80EF91EC601B5019B
:101BC000D7011B962D913D914D915C911E970E94DE
:101BD000663C5B016C010FA518A9000F111F000FD7
:101BE000111F075A124FC201B101F8012385348534
:101BF000458556850E94663C9B01AC01C601B50136
:101C00000E94772E5B016C01D7011B966D917D912F
:101C10008D919C911E97F8012385348545855685C5
:101C20000E94772E3B014C0160937D0D70937E0DD9
:101C300080937F0D9093800DC601B501A40193019F
:101C40000E94663C7B018C01E89417F9C801B7013A
:101C50002AE037ED43EA5BE30E94433F1816ACF5F8
:101C6000C801B70120E030E040E05FE30E94433F5D
:101C700018160CF4DAC2C401B3012FE632E143E8CE
:101C80005AE30E947E3F9B01AC01C801B7010E944C
:101C9000433F1816D4F4C9C2FBA1F061FBA31E5840
:101CA000123018F42BA128602BA339A5332309F493
:101CB000BAC281E29DE066E87DE040E150E00E942A
:101CC000AD40009711F4B1C21EA64BA1842F90E045
:101CD0009C012170307040FF04C08CA19DA18E7DBD
:101CE00004C08CA19DA18E7D9C7FAEA5AA2309F086
:101CF0009370892B11F084E29BC28DE0FE01369631
:101D0000DF011D928A95E9F7232B91F1EEA1FFA146
:101D1000E67BEF2B09F08BC28091550D853319F0CE
:101D2000882309F084C28091140D9091150DA09123
:101D3000160DB091170D8A879B87AC87BD87809160
:101D4000120D9091130D892B8A8BCE01069665E5B5
:101D50007DE00E94263C882309F06AC2A1E2BDE032
:101D6000E6E8FDE090E101900D929150E1F760C24C
:101D70008091EB0F81FF27C08091560D81508330F9
:101D800018F0FBA1F064FBA329A5222339F03EA59E
:101D9000323021F44BA140684BA315C08091130D44
:101DA000803189F480910A0D81509BA1833030F4F9
:101DB00096FF09C0892F80628BA305C096FD03C0E2
:101DC0009BA190629BA38091750D9091760DA0913F
:101DD000770DB091780D80931D0D90931E0DA093FB
:101DE0001F0DB093200D8E879F87A88BB98B809194
:101DF000570D80930B0D882319F08A8988608A8B90
:101E00008091600D9091610DA091620DB091630D74
:101E10008093180D9093190DA0931A0DB0931B0D7C
:101E20008E839F83A887B987E090810DF090820D03
:101E30000091830D1091840D6091140D7091150D1A
:101E40008091160D9091170DA80197010E94403DB9
:101E5000882319F4ABA1A5FF22C08091130D88231C
:101E600071F0BBA1B7FD0BC0B6FF05C040E050E06C
:101E700060E070E002C0B801A7010E94A312809147
:101E8000810D9091820DA091830DB091840D80936E
:101E9000140D9093150DA093160DB093170DEBA193
:101EA000CE2EDD24E6FD0CC08091140D9091150D11
:101EB000A091160DB091170D8A879B87AC87BD87BF
:101EC0008091850D80931C0D90915F0D8091130D75
:101ED000891759F04A855B856C857D85892F0E941D
:101EE000A31280915F0D8093130D8A899091130D39
:101EF000892B8A8B90915E0D8091120D891779F054
:101F0000892F0E94071390915E0D992319F4109266
:101F1000120D05C08091120D892B8093120D8A89B4
:101F20009091120D892B8A8B8091550D843051F43C
:101F30006091790D70917A0D80917B0D90917C0D5F
:101F40000E947E0280915A0D80930E0D8091580D53
:101F500080930C0DFEA5F33091F580915B0D80937D
:101F60000F0D882361F480E090E0A0E0B0E0809362
:101F70008E0D90938F0DA093900DB093910DE090E6
:101F80008E0DF0908F0D0091900D1091910D60913C
:101F9000510D7091520D8091530D9091540DA801E7
:101FA00097010E94403D882351F0E092510DF0923C
:101FB000520D0093530D1093540D0E94AE39909121
:101FC0005C0D8091100D891769F09093100DA1E3BD
:101FD000BDE0FE01739680E101900D928150E1F722
:101FE0000E94AE398091590D80930D0D8091550D51
:101FF000863209F447C0873240F48C3129F18E31A2
:1020000019F18A3009F059C00AC08C3509F442C070
:10201000863609F449C0883209F04FC035C08AA518
:1020200064E67DE00E9461258091100D2AA582174B
:1020300009F043C0A1E3BDE0E4E6FDE080E10190EA
:102040000D928150E1F737C08A8981608A8B3EA565
:10205000332339F086E89DE0BE016A5F7F4F0E941E
:10206000940284E69DE0BE016A5F7F4F0E94940265
:10207000A1E2BDE0E4E6FDE080E101900D92815037
:10208000E1F71BC086E001C087E061E27DE00E94CD
:10209000612513C0A1E4BDE0E6E8FDE080E1019028
:1020A0000D928150E1F707C080E1E1E4FDE0DF013E
:1020B0001D928A95E9F70E94AE398091560D809362
:1020C0000A0D803509F454C0BEA5B23009F050C0E5
:1020D000813029F0882359F48A8981608A8B86E8C7
:1020E0009DE0BE016A5F7F4F0E9494022FC0825024
:1020F000BE016A5F7F4F8230F8F40F92E0907D0D51
:10210000F0907E0D00917F0D1091800DD694C794B4
:10211000D694C7948C2D8170EDB7FEB7818386E885
:102120009DE041E25DE024E63DE0CDA4ACA48BA4BB
:102130000E9439030F900AC08A8984608A8B86E8DE
:102140009DE04BA10E94BF02882351F4A1E2BDE0B3
:10215000E6E8FDE080E101900D928150E1F708C0D2
:10216000813031F481E29DE069EF7CE00E940B391F
:1021700080915D0D8093110D882309F459C00E9450
:10218000E5168091110D833051F48091D50C823089
:10219000B1F188E00E9471390E94CE1530C081E013
:1021A00080930A0D10920E0D10920D0D10920B0DD2
:1021B0001092100D1092130D1092120D84E6809360
:1021C000DC0C8093DD0C8093DE0C8091D50C82308A
:1021D00099F080E061E37DE00E947A25882309F18F
:1021E0000E94AE3980E040E050E060E070E00E9484
:1021F0006A1280E00E94E61288E00E946C3310921E
:10220000110D80E015C088E113C084E111C087E1A1
:102210000FC085E10DC086E10BC08CE109C08DE1E6
:1022200007C087E005C08AE103C081E201C080E108
:10223000E4960FB6F894DEBF0FBECDBFCF91DF910D
:102240001F910F91FF90EF90DF90CF90BF90AF90D4
:102250009F908F907F906F905F904F903F902F90C6
:10226000089584E00C9411088AE00C941108EAE0C7
:10227000FDE08BE4DF011D928A95E9F78091100D56
:10228000BF01695D7F4F0E947A25882319F487E09A
:102290000E94B83308950F931F93E1E0F1E080812D
:1022A0008061808300EA10E083E0D8018C938AE1AA
:1022B0008093A10080E094E09093A9008093A8000F
:1022C0008081886080836B9A6091E30F7091E40F46
:1022D0008091E50F9091E60F2091E70F3091E80F84
:1022E0004091E90F5091EA0F0E94663C9B01AC01BE
:1022F00060E070EC8FE794E40E94473D6093000239
:10230000709301028093020290930302F80180818E
:102310008F7D8083E2E0F1E08081877F80831F9161
:102320000F9108958091020183FF0AC08091A0005F
:1023300085FF06C0739902C081E0089582E0089588
:1023400080E00895E0EAF0E080818F7D8083E2E024
:10235000F1E08081877F808308959093AB00809324
:10236000AA00892B21F48091A0008F7D03C0809169
:10237000A00080628093A00008955F926F927F9288
:102380008F929F92AF92BF92CF92DF92EF92FF9285
:102390000F931F937B018C015090DE0C6090E70F30
:1023A0007090E80F8090E90F9090EA0FA090E30FF3
:1023B000B090E40FC090E50FD090E60FC401B301D8
:1023C000A60195010E94433F87FF1CC0652D70E068
:1023D000882777FD8095982F0E94E23D2AE037ED0F
:1023E00043E25CE30E947E3F9B01AC01C801B70160
:1023F0000E947E3F7B018C01A60195010E94433F14
:1024000088235CF0A092E20CB092E30CC092E40C42
:10241000D092E50C60E074E04EC0C801B701A401A1
:1024200093010E94403D181624F1C801B70120E035
:1024300030E040E050E00E94403D882379F480E0A5
:1024400090E0A0E0B0E08093E20C9093E30CA093C6
:10245000E40CB093E50C60E070E02DC06092E20CFB
:102460007092E30C8092E40C9092E50C61E070E0D5
:1024700022C0E092E20CF092E30C0093E40C109383
:10248000E50CC801B701A40193010E94663C2091AC
:1024900000023091010240910202509103020E9419
:1024A0007E3F0E941D3E20E030E040E85FE30E9456
:1024B000673C0E94B43DCB011F910F91FF90EF90BC
:1024C000DF90CF90BF90AF909F908F907F906F9054
:1024D0005F900895982F8091D60C882399F59923C1
:1024E000A9F480E090E0A0E0B0E08093E20C90934B
:1024F000E30CA093E40CB093E50C8091A0008F7DD9
:102500008093A00080910201877F18C0903111F460
:10251000739801C0739A8091EB0F81FF06C09032CF
:1025200021F440E050E060E070E0CB01BA010E948D
:10253000BD110E94AD11809102018860809302015B
:102540001092E00C0895DF92EF92FF920F931F9389
:10255000D82E7A018B018091D50C823039F00E94FF
:10256000E5168D2DB801A7010E946A121F910F91E7
:10257000FF90EF90DF900895E1E0F1E080818062CC
:102580008083808180648083E2E0F1E080818F7DC0
:10259000808380818F7B808308958091020190E009
:1025A00025E0969587952A95E1F7982F917080916F
:1025B000020186FD9260892F0895E2E0F1E08081BA
:1025C0008F7D808380818F7B80830895982F809179
:1025D000D60C8823D9F4992349F4809102018F7D88
:1025E00080930201809102018F7B0CC096FF05C091
:1025F0008091020180628093020197FF05C0809163
:1026000002018064809302011092E00C08951F93F0
:10261000182F8091D50C823029F00E94E516812F69
:102620000E94E6121F910895809105029091040284
:102630008150891B0895E0ECF0E080818260808306
:102640001092C50080E18093C400E1ECF0E080814D
:10265000886980830895282FE09106029E2F9F5F4E
:1026600004C08091E70C84FD0FC080910702981789
:10267000C1F3F0E0EA56F24F208390930602809176
:10268000C10080628093C10008951F920F920FB61F
:102690000F920BB60F9211248F939F93EF93FF939A
:1026A00090910702E92FF0E0EA56F24F8081809383
:1026B000C6009F5F9093070280910602981729F445
:1026C0008091C1008F7D8093C100FF91EF919F9118
:1026D0008F910F900BBE0F900FBE0F901F9018950B
:1026E0009091050280910402891711F48FEF0895EB
:1026F000E92FF0E0EA56F14F80819F5F9093050249
:102700000895809104028093050208951F920F920C
:102710000FB60F920BB60F9211242F933F934F9346
:102720005F936F937F938F939F93AF93BF93EF9339
:10273000FF939091C600913299F0923218F498313B
:1027400089F405C09F3331F09E3761F405C00E94C3
:10275000470255C081E001C082E00E9471394FC03C
:1027600088E0FBCF97FF3DC0892F90E0FC01E45843
:10277000F040EE31F10508F042C0EE58FF4FEE0F89
:10278000FF1F0590F491E02D199480E2E6CF80912F
:10279000D50C85FF34C080E4E0CF81E00DC082E03D
:1027A0000BC084E009C088E007C080E105C080E27A
:1027B00003C080E401C080E80E94903920C081E01D
:1027C0000DC082E00BC084E009C088E007C080E152
:1027D00005C080E203C080E401C080E80E9499390E
:1027E0000EC0E09104022E2F2F5F80910502281762
:1027F00031F0F0E0EA56F14F908320930402FF910C
:10280000EF91BF91AF919F918F917F916F915F9168
:102810004F913F912F910F900BBE0F900FBE0F90D5
:102820001F9018950F931F93CF93DF931091090D6D
:102830001123A9F081E08093D50C812F0E94AB3841
:102840001150123050F481E00E946C3380E10E94FC
:102850007A398091E70C84FFFCCF0E948A3910916D
:10286000E70C112309F401C1C12FD0E014FF04C00B
:1028700081E08093D60C8DC110FF05C00E94E33526
:1028800081E00E947A399E01287E09F468C0809117
:10289000D50C282F30E0C90183709070892B09F086
:1028A0004DC028723070232BA1F08091D70C807C12
:1028B00081F40E94E01782E08093D90C8091D50CBE
:1028C000803239F417FD05C08091D70C8068809361
:1028D000D70C9091D50C992319F481E08093D70CF3
:1028E000C6FF07C095FD05C08091D70C806480931A
:1028F000D70CC3FF05C0907E19F480E18093D50CFE
:10290000C5FF1CC086E00E946C338091D70C87FD08
:1029100010C09091D50C903439F483FF07C0837EAA
:1029200082608093D70C02C0903819F080E48093C5
:10293000D50C8091D70C80628093D70C17FF0CC008
:102940008091D50C813029F48091D70C85608093DB
:10295000D70C80E88093D50C88EE0E947A39C1FFAD
:1029600046C0CE0188769070892BF1F58091D50C08
:10297000803471F49091D70C95FD0AC094FF03C088
:102980001092D50C05C092FF03C098609093D70CAD
:102990009091D50C992381F094FF26C08091D70C9B
:1029A00080FF22C0903141F48091DF0C882321F018
:1029B00088608093DF0C18C01092D90C0E94752794
:1029C000892B71F08091D70C86FD0AC01092D70C2C
:1029D00088E08093D50C0E941B180E94881704C0C1
:1029E0001092D70C1092D50C82E00E947A39C2FF67
:1029F0003CC08091D50C807DB9F08091D80C8823A3
:102A000099F48091D70C87FD0FC00E940F2A9091F6
:102A1000D90C91FF05C08091D70C81608093D70CB1
:102A2000997F9093D90C1EC08091D70C87FF0AC064
:102A30001092D90C0E94182A0E94FF1F0E942006A3
:102A40000E94A3288091D70C85FF08C08F778160F2
:102A50008093D70C80E48093D50C04C01092D70CDF
:102A60001092D50C84E00E947A391091D40C112375
:102A700091F10E94A2394091DC0C912F10FD02C00F
:102A8000842F01C084E691FD865F92FD8A5093FDFC
:102A90008F5F94FD8150893C08F088EC282F8A30A4
:102AA00008F42AE03091DD0C95FD02C0832F01C0AF
:102AB00084E696FD82E317FD89E1241711F483175C
:102AC00051F02093DC0C8093DD0C1092E00C0E94FE
:102AD00035280E940F2A0091E60C002309F453C008
:102AE0000E94A8393091DE0C202F00FD02C0832FF8
:102AF00001C084E621FD865F22FD8A5023FD8F5FA1
:102B000024FD8150893C08F088EC982F8A3008F425
:102B10009AE0931749F08091D90C88608093D90C82
:102B20009093DE0C1092E00C25FF0FC08091D50C25
:102B3000803159F48091DF0C882311F482E003C0C6
:102B400080FF03C084608093DF0C822F807CD9F0EB
:102B50008091D50C882311F08871A9F01091120D85
:102B600007FF05C017FF02C01F7701C0106826FFCE
:102B700005C016FF02C01F7B01C01064812F0E9498
:102B8000E6121093120D8091D50C8C7F11F00E94EB
:102B90001B18DF91CF911F910F910895BF92CF9293
:102BA000DF92EF92FF920F931F930E941214809175
:102BB000D70C882309F4F9C00E947527FC010097FF
:102BC00071F41091120D8091130D182BC090140DFB
:102BD000D090150DE090160DF090170D05C01589D9
:102BE000C6A8D7A8E0ACF1AC8091EB0F81FFD3C0B1
:102BF00080E20E949939CFC08091D60C882309F0D9
:102C0000D4C0292F90FFC4C09091D50C892F807C0F
:102C100009F477C022FD13C01092DF0C80E040E081
:102C200050E060E070E00E946A1280E00E94E612CC
:102C30008091D70C8D7F84608093D70CA9C0903889
:102C4000B9F48BE00E946C3380E040E050E060E03B
:102C500070E00E946A1280E00E94E6120E94CF1F7C
:102C600002C00E9412148091D60C8823D1F39DC01B
:102C7000903449F40E94EB38882329F48091D70CD2
:102C80008F7D8093D70C8091D70C982F83FF80C0C5
:102C90008091130D8823C1F091FD16C08091EB0F38
:102CA00081FF06C08091D90C88608093D90C0CC03C
:102CB000802FB701A6010E946A1260E070E080E8F0
:102CC00090E441E00E94A02E8091120D882371F0C3
:102CD0008091D70C81FD0AC0812F0E94E61260E02E
:102CE00070E080E89FE341E00E94A02E8091D70C25
:102CF00081FD4EC080618093D70C82E00E947139C3
:102D000047C08091DF0C8823A9F190E081FF0EC0BD
:102D10008091130D882359F180E040E050E060E09D
:102D200070E00E946A12B092DF0C32C08C7090701A
:102D3000892B71F18091130D882391F08AE00E9414
:102D40006C338091EB0F81FF06C08091D90C8860B5
:102D50008093D90C05C0802FB701A6010E946A128A
:102D60008091DF0C83FF03C082E00E9471391092D2
:102D7000DF0C0EC08091D90C83FF0AC0802FB701F1
:102D8000A6010E946A128091D90C877F8093D90C8A
:102D90000E94121405C0012F0073BB24B394107459
:102DA0009091D70C992309F027CF1F910F91FF9095
:102DB000EF90DF90CF90BF9008950E947527892BE8
:102DC00019F082E00E94713908950E94DD160E9478
:102DD000CE158091D60C882341F40E947527892B4B
:102DE000B1F78091D50C883091F308950F931F931C
:102DF0008091EB0F83FF0AC00E944F2F882331F090
:102E000081E08093D50C87E00E946C338091D50CD3
:102E1000817839F082E00E946C3381E08093D50C98
:102E200027C01092D50C0E94EB38882339F080918E
:102E3000E70C80628093E70C0E94CE1588E092E058
:102E40000E94F53915C09A3011F09D3051F50E945D
:102E5000CE158091D60C882309F057C0E12FF0E001
:102E6000E85FFD4F108200FF06C08BE00E94B83380
:102E700000E010E03CC0809108028823B9F384325E
:102E800029F488E092E00E94233AF0CF8091D50C9B
:102E9000817211F089E0EACF88E092E00E94270673
:102EA000E5CF002321F0993211F50D7F20C091323A
:102EB000F0F09F32E1F0983211F402E018C09B3339
:102EC00011F404E014C01F3F11F401E010C0892F79
:102ED0008156A12FB0E0E12FEF5F8A3120F4A85F87
:102EE000BD4F905202C0A85FBD4F9C931E2F0E9401
:102EF0007013982F8F3F09F0A6CF0E94DD160E9415
:102F0000CE158091D60C882391F31F910F910895CF
:102F10008091EB0F82FF02C02F9A01C02F98809101
:102F20004C04809330048091D60F90E0A0E0B0E094
:102F30000297A109B109880F991FAA1FBB1F81958C
:102F400080932F0480916F00826080936F000895BA
:102F50001F920F920FB60F9211248F939F9392B1ED
:102F600080914C048C7F9370892B82B915BC9F9102
:102F70008F910F900FBE0F901F90189581B18C6F9D
:102F800081B9279A87B18C6F87B9E1E8F0E0808139
:102F90008F7E8083808188608083E0E8F0E080819C
:102FA0008C7F808380818F708083EEE6F0E080816B
:102FB000887F808314BC15BC8081816080830895E4
:102FC000CF93DF93C0914F04D09150042097C9F064
:102FD0008091540481608093540420916A0430915C
:102FE0006B0440916C0450916D04CA01B9010E94B8
:102FF0007E3F6A8F7B8F8C8F9D8F10925004109232
:103000004F04DF91CF9108958091D50C8C7721F4F6
:1030100070E060E090E008C070916A0460916B0419
:1030200090916C0480916D04272F362F492F582FD3
:10303000B901CA0108952F923F924F925F926F9209
:103040007F928F929F92AF92BF92CF92DF92EF9238
:10305000FF920F931F93DF93CF93CDB7DEB7ED971A
:103060000FB6F894DEBF0FBECDBF8091D90C80FFA4
:103070003AC740C780914F0490915004892B09F0C2
:1030800040C38091D90C82FF03C00E946B2702C00D
:103090000E9475279093500480934F0480914F04B1
:1030A00090915004892B09F425C78091540480FF26
:1030B00003C010925404F3C0809153048F5F893091
:1030C00009F480E08093530426E1829FF0011124EB
:1030D000E85FFC4FF0935204E0935104A0914F0439
:1030E000B091500454968C91848B40E050E06091F4
:1030F000510470915204FA01EE0FFF1FEE0FFF1FF3
:103100009B012E0F3F1F00914F0410915004E00FC0
:10311000F11F80819181A281B381E3E0880F991F23
:10312000AA1FBB1FEA95D1F7F90180839183A2837F
:10313000B3834F5F5F4F44305105C9F6F801808972
:103140009189A289B38943E0880F991FAA1FBB1FE9
:103150004A95D1F7FB01808B918BA28BB38BD80161
:1031600050966D917D918D919C9153970E94E03D79
:103170006093590470935A0480935B0490935C04A9
:10318000F80126A137A140A551A50E94473D9B010A
:10319000AC0160935D0470935E0480935F04909330
:1031A000600460E070E080EA9FE30E94473D609326
:1031B000610470936204809363049093640480E0DC
:1031C00090E0A0E0B0E08093550490935604A09363
:1031D0005704B09358048091D90C81FD04C08091AC
:1031E000540483FF25C020917204309173044091F0
:1031F00074045091750420936A0430936B044093D7
:103200006C0450936D0400914F0410915004CA0156
:10321000B9010E947E3FD8015A966D937D938D939C
:103220009C935D9780915404877F809354040FC0D2
:10323000F801628D738D848D958D0E940B40609393
:103240006A0470936B0480936C0490936D04E09116
:103250005104F0915204158A8091EB0F81FF1FC039
:10326000E0914F04F0915004858985FF18C060E01B
:1032700070E080E89FE322A933A944A955A90E94E0
:10328000473D60937E0470937F0480938004909305
:103290008104E0915104F091520421E0258B80E0FB
:1032A00090E0A0E0B0E08093660490936704A09360
:1032B0006804B093690400914F0410915004D80140
:1032C00092962D903D904D905C90959760E070E0C7
:1032D00080E09FE3A20191010E94473D68A379A38A
:1032E0008AA39BA38091D90C282F81FF56C0B2E0FE
:1032F000B0936504F801A6A0B7A0C0A4D1A4628CC5
:10330000738C848C958C68A179A18AA19BA1A4015E
:1033100093010E947E3F9B01AC01C601B5010E9452
:10332000663C7B018C0120E030E040E050E00E94F0
:10333000403D8823ECF4C201B10120E030E040E0E0
:1033400050EC0E947E3FA60195010E947E3F9B01AA
:10335000AC01C401B3010E94673C0E940B40609322
:103360007204709373048093740490937504C4C1C1
:10337000E0926604F0926704009368041093690475
:1033800080E090E0A0E0B0E080937204909373043A
:10339000A0937404B0937504AFC110926504F80152
:1033A00086A197A1A0A5B1A58093760490937704F8
:1033B000A0937804B093790422FF0FC080E090E0DE
:1033C000A0E0B0E08093720490937304A09374041F
:1033D000B09375041C012D010EC00E9486271B01AD
:1033E0002C010E940B4060937204709373048093CD
:1033F00074049093750480914F04909150040E943E
:10340000BD276C8F7D8F8E8F9F8F9B01AC010E949B
:103410007E3F3B014C01A0914F04B0915004BDAFE1
:10342000ACAF9696AD90BD90CD90DC9099975A96A2
:10343000ED90FD900D911C915D97C801B701A4011D
:1034400093010E94433F18160CF07BC0C801B701DE
:10345000A40193010E94663C9B01AC0168A179A183
:103460008AA19BA10E947E3F9B01AC01C601B501D0
:103470000E94663C6093760470937704809378048E
:103480009093790420E030E040E050E00E94403D1D
:1034900018168CF1B2E0B0936504ECADFDAD62A1FD
:1034A00073A184A195A120E030E040E050EC0E949F
:1034B0007E3FACADBDAD96962D913D914D915C9109
:1034C00099970E947E3FECADFDAD228D338D448DEA
:1034D000558D0E94673C0E940B406093720470936C
:1034E00073048093740490937504809154048860ED
:1034F0008093540401C1C401B301A20191010E944F
:10350000663C9B01AC0168A179A18AA19BA10E94A4
:103510007E3F60937A0470937B0480937C04909345
:103520007D048C8D9D8DAE8DBF8D80936E049093A8
:103530006F04A0937004B093710493E090936504BA
:10354000DBC0C801B701A20191010E94663C9B014A
:10355000AC0168A179A18AA19BA10E947E3F9B0139
:10356000AC01C601B5010E94673C20E030E040E0BC
:103570005FE30E947E3F7B018C0120E030E040E071
:1035800050E00E94433F18160CF09AC0C801B701E2
:10359000A60195010E94403D88230CF08DC0C40116
:1035A000B301A20191010E94663C9B01AC0168A19C
:1035B00079A18AA19BA10E947E3F60937A047093B7
:1035C0007B0480937C0490937D04A80197010E9462
:1035D000403D88230CF043C08C8D9D8DAE8DBF8DFA
:1035E00080936E0490936F04A0937004B093710461
:1035F000ACADBDAD5A96ED90FD900D911C915D97CF
:10360000C801B701A40193010E94403D882321F421
:10361000B1E0B093650470C0C401B301A801970183
:103620000E94663C9B01AC0168A179A18AA19BA183
:103630000E947E3F9B01AC016091760470917704FB
:1036400080917804909179040E94663C609376049E
:103650007093770480937804909379044DC0E0923E
:103660007604F09277040093780410937904E09242
:103670007A04F0927B0400937C0410937D04ECADFB
:10368000FDAD22A133A144A155A1CA01B9010E94F7
:10369000673CA80197010E947E3FA20191010E9410
:1036A000673C0E940B4060936E0470936F0480939C
:1036B00070049093710420C0F2E0F09365041CC084
:1036C00080E090E0A0E0B0E08093760490937704EF
:1036D000A0937804B093790480917204909173045C
:1036E000A0917404B091750480936E0490936F045C
:1036F000A0937004B09371048091D90C886080937A
:10370000D90C80914A04A82FB0E033E0AA0FBB1F68
:103710003A95E1F7A253BC4FBDAFACAF80915304D3
:1037200014968C93E0914F04F0915004FE8BED8B36
:1037300086A197A1A0A5B1A5898B9A8BAB8BBC8BD9
:10374000BC01CD0120916104309162044091630479
:10375000509164040E94663C6CA37DA38EA39FA33A
:1037600020E030E040E050E00E94403D882344F4F7
:1037700080E090E0A0E0B0E08CA39DA3AEA3BFA347
:103780008091760490917704A0917804B0917904A7
:103790008D879E87AF87B88B80916E0490916F0460
:1037A000A0917004B0917104888F998FAA8FBB8FFC
:1037B00080917A0490917B04A0917C04B0917D0467
:1037C00089879A87AB87BC8780916604909167044C
:1037D000A0916804B09169048D839E83AF83B887FC
:1037E0008091720490917304A0917404B091750457
:1037F00089839A83AB83BC83A0906A04B0906B04E6
:10380000C0906C04D0906D04909165049F8B698882
:103810007A888B889C888EE393ECAEE2B9E38CA720
:103820009DA7AEA7BFA780E090E0A0E0B0E088A78A
:1038300099A7AAA7BBA70F2EFEE32F2EF3EC3F2ECE
:10384000FEE24F2EF9E35F2EF02D9F89913009F4AF
:10385000E9C0913008F475C0933009F015C1C20178
:10386000B101AD89BE8992962D913D914D915C91AA
:1038700095970E947E3F68AB79AB8AAB9BAB20E00B
:1038800030E040E05FEB0E947E3F9B01AC01C6014F
:10389000B5010E94673C9B01AC01C201B1010E94CD
:1038A0007E3F7B018C01C401B301A80197010E94F6
:1038B000663C3B014C012D853E854F8558890E9411
:1038C000403D87FD0AC0C801B70120E030E040E07C
:1038D00050E00E94403D18165CF169897A898B8915
:1038E0009C892D853E854F8558890E94663C9B01A9
:1038F000AC010E94673C7B018C01C601B501288D9B
:10390000398D4A8D5B8D0E94673C9B01AC01C801DB
:10391000B7010E94473D1B012C016D847E848F847A
:103920009888A88CB98CCA8CDB8CB1E0BF8B1BC18A
:10393000C601B50128A939A94AA95BA90E94663C1C
:103940006EC0C201B101ED89FE8922A133A144A15B
:1039500055A10E947E3F7B018C0120E030E040E0D9
:103960005FE30E947E3F9B01AC01C601B5010E944E
:10397000673C9B01AC01C201B1010E947E3F9B01EB
:10398000AC01C401B3010E94663C3B014C012D8592
:103990003E854F8558890E94403D8823D4F56D852A
:1039A0007E858F85988929853A854B855C850E941F
:1039B000403D882319F4F2E0FF8B02C021E02F8BF9
:1039C00069897A898B899C892D853E854F8558899F
:1039D0000E94663C9B01AC010E94673C7B018C010C
:1039E000C601B501288D398D4A8D5B8D0E94673CDB
:1039F0009B01AC01C801B7010E94473D1B012C018E
:103A00006D847E848F849888A88CB98CCA8CDB8C5A
:103A1000AAC0C601B501A80197010E94673C5B01DD
:103A20006C01A1C0688D798D8A8D9B8DA201910159
:103A30000E947E3F9B01AC01C401B3010E94663C21
:103A40007B018C0129853A854B855C850E94403D30
:103A500087FD03C03701480186C0C401B301298531
:103A60003A854B855C850E94663C288D398D4A8D50
:103A70005B8D0E94473D1B012C0169847A848B84F5
:103A80009C8432E03F8B6FC0C201B101AD89BE8919
:103A900092962D913D914D915C9195970E947E3F1C
:103AA0007B018C01C601B501A80197010E94433F2B
:103AB00018169CF5C801B70120E030E040E05FEB4C
:103AC0000E947E3F9B01AC01C601B5010E94673C8C
:103AD0009B01AC01C201B1010E947E3F9B01AC0180
:103AE000C401B3010E94663C6CAB7DAB8EAB9FAB57
:103AF0002D813E814F8158850E94433F18166CF4FA
:103B0000C601B501A80197010E94663C5B016C01EA
:103B10006CA87DA88EA89FA826C0C401B3012D81E2
:103B20003E814F8158850E94663C9B01AC010E94FA
:103B3000673C7B018C01C601B50129813A814B812B
:103B40005C810E94673C9B01AC01C801B7010E94E7
:103B5000473D1B012C016D807E808F809884A98059
:103B6000BA80CB80DC8068A579A58AA59BA5A20137
:103B700091010E94673C68A779A78AA79BA72CA5FB
:103B80003DA54EA55FA50E94403D88232CF46CA561
:103B90007DA58EA59FA524C0C401B3012CA13DA184
:103BA0004EA15FA10E94433F181664F0A0926A04E0
:103BB000B0926B04C0926C04D0926D04BF89B09334
:103BC00065042CC06CA57DA58EA59FA52EE333ECC6
:103BD0004EE259E30E94673C6CA77DA78EA79FA782
:103BE00028A539A54AA55BA50E94663C1B012C01AE
:103BF000C401B3012D813E814F8158850E94433F0E
:103C000018160CF422CEA0926A04B0926B04C092F3
:103C10006C04D0926D04EF89E0936504E091510447
:103C2000F09152049589992321F48091D90C83FF56
:103C300047C0AD89BE8955968C915597807359F1CF
:103C4000D696ED90FD900D911C91D9979923D1F0C6
:103C500060916A0470916B0480916C0490916D0482
:103C600020917E0430917F04409180045091810422
:103C70000E947E3F9B01AC01C801B7010E947E3FBC
:103C80007B018C01C801B7010E94BD119093830490
:103C90008093820410C080E090E0A0E0B0E08093C8
:103CA000E20C9093E30CA093E40CB093E50C10921B
:103CB0008304109282048091D90C877F8093D90C61
:103CC0008091820490918304ACADBDAD17969C9316
:103CD0008E931697C401B30120915D0430915E0468
:103CE00040915F04509160040E947E3F68AF79AFBD
:103CF0008AAF9BAF0E942D3D1B012C01609159049E
:103D000070915A0480915B0490915C040E942D3D57
:103D10005B016C01A20191010E94663C0E94B43DCE
:103D2000ECADFDAD71836083672B21F48091D90CDC
:103D300081FDCFC068A579A58AA59BA520915504D2
:103D40003091560440915704509158040E94673CAA
:103D50007B018C01C601B50128AD39AD4AAD5BAD23
:103D60000E94663C9B01AC01C801B7010E94473D1F
:103D70007B018C0120EC31EE44E65EE40E947E3F44
:103D80000E942D3D0E94B43DAB01BC01403DF7E0D7
:103D90005F07F0E06F07F0E07F0728F4ACADBDAD42
:103DA00015961C9233C0403ABFE05B07B0E06B074A
:103DB000B0E07B0728F421E0ECADFDAD25830FC01A
:103DC00040343FE1530730E0630730E0730710F4FD
:103DD000E2E001C0E3E0ACADBDAD1596EC93ACAD57
:103DE000BDAD15962C911597022E04C0769567955A
:103DF000579547950A94D2F78D919C91119702C0DF
:103E0000880F991F2A95E2F78D939C934030B0E07C
:103E10005B07B1E06B07B0E07B0728F4ECADFDADCC
:103E20005383428308C0EFEFFFEFACADBDAD1396F7
:103E3000FC93EE93129780914B0480934A048F5F1A
:103E400080934B048A3011F410924B04E0914F049C
:103E5000F091500466A277A280A691A62092590400
:103E600030925A0440925B0450925C04C201B1014A
:103E700028AD39AD4AAD5BAD0E94663CA801970103
:103E80000E947E3F609355047093560480935704BC
:103E900090935804C401B3012091660430916704E3
:103EA00040916804509169040E94403D8823D9F4F0
:103EB000C401B30120E030E040E050E00E94433F05
:103EC00018161CF48091D90C04C08091D90C82FF83
:103ED00004C081608093D90C0DC0109250041092E0
:103EE0004F040E9457279091490480914B049817E2
:103EF00009F0C0C8ED960FB6F894DEBF0FBECDBF77
:103F0000CF91DF911F910F91FF90EF90DF90CF90B5
:103F1000BF90AF909F908F907F906F905F904F90E9
:103F20003F902F900895FF920F931F93CF93DF93AD
:103F300010924C0410924D04C0E0D0E00C2FFC2EE7
:103F40008091D70F90E00C2E02C0959587950A942A
:103F5000E2F780FF08C010914C048C2F0E949B2335
:103F6000182B10934C048091D80F90E002C09595C7
:103F70008795FA94E2F780FF08C010914D04802FD6
:103F80000E94AB23182B10934D042196C430D10509
:103F9000A9F6DF91CF911F910F91FF900895809125
:103FA0006F008D7F80936F0080918100887F81609A
:103FB0008093810010924E049091D90F9F3F41F45D
:103FC0008091090D882321F48091D50C803851F41B
:103FD0008091D50C843031F0892F90E00E949C2D87
:103FE00091E001C090E08091EB0F82FF02C081E080
:103FF0009827992311F02F9A08952F9808950E94D9
:10400000CF1F81E3E3E5F4E0DF011D928A95E9F734
:104010008BE2EEE1F4E0DF011D928A95E9F7109260
:104020004804109247041092500410924F041092CA
:10403000490410924A0481E080934B0410924E048C
:104040000E94931F20914D042093310482B183700C
:1040500090914C04892B82B988B18370822B88B9E6
:1040600008951F920F920FB60F920BB60F92112464
:104070002F933F934F935F936F937F938F939F9370
:10408000AF93BF93CF93DF93EF93FF9380914E0451
:10409000882309F090C298B1809131048C7F93708D
:1040A000892B88B982B1837090913004892B82B9B1
:1040B00080912F0486BD82E085BD81E080934E040F
:1040C00078948091470490914804892B09F0CBC0E3
:1040D0009091490480914A04891709F4B3C08091F2
:1040E0004904C82FD0E033E0CC0FDD1F3A95E1F74B
:1040F000C253DC4FD0934804C09347048A819B810C
:1041000090938900809388008881998190934304DB
:10411000809342049C81809144048917A1F190937B
:104120004404E6E19E9FF0011124E85FFC4FF09308
:104130004604E093450480899189A289B389B695A4
:10414000A795979587958093260490932704A0932D
:104150002804B09329048093220490932304A0930D
:104160002404B093250480931E0490931F04A0930D
:104170002004B093210480932A0490932B04A093ED
:104180002C04B0932D04E0914504F09146048091F5
:104190004D0494898927809331042D8180819181F8
:1041A000A281B381022E04C0B695A79597958795F5
:1041B0000A94D2F78093320490933304A09334048A
:1041C000B093350484819581A681B781022E04C005
:1041D000B695A795979587950A94D2F7809336045C
:1041E00090933704A0933804B09339048085918567
:1041F000A285B385022E04C0B695A795979587959D
:104200000A94D2F780933A0490933B04A0933C0421
:10421000B0933D0484859585A685B78504C0B69581
:10422000A795979587952A95D2F780933E0490930A
:104230003F04A0934004B09341048E819F810E946B
:10424000AD1111C00E94CF1FE0914504F0914604CA
:104250008589882321F080E090E00E94AD1184E000
:104260000E947139A8C18091E80C813011F40E943C
:104270004233109230042091320430913304409143
:1042800034045091350480911E0490911F04A09134
:104290002004B0912104280F391F4A1F5B1F20936F
:1042A0001E0430931F044093200450932104E09196
:1042B0004504F091460480899189A289B3898217C7
:1042C0009307A407B507A8F584E08093300480899C
:1042D0009189A289B389281B390B4A0B5B0B209368
:1042E0001E0430931F0440932004509321048489BA
:1042F00087FF0CC08091F90C9091FA0CA091FB0CF7
:10430000B091FC0C0197A109B1090BC08091F90C87
:104310009091FA0CA091FB0CB091FC0C0196A11DA0
:10432000B11D8093F90C9093FA0CA093FB0CB09301
:10433000FC0C2091360430913704409138045091A0
:1043400039048091220490912304A0912404B09117
:104350002504280F391F4A1F5B1F20932204309326
:104360002304409324045093250480899189A289D1
:10437000B38982179307A407B507B8F58091300475
:1043800088608093300480899189A289B389281B31
:10439000390B4A0B5B0B2093220430932304409388
:1043A000240450932504848986FF0CC08091FD0C61
:1043B0009091FE0CA091FF0CB091000D0197A10906
:1043C000B1090BC08091FD0C9091FE0CA091FF0CE7
:1043D000B091000D0196A11DB11D8093FD0C90932D
:1043E000FE0CA093FF0CB093000D20913A04309185
:1043F0003B0440913C0450913D04809126049091EF
:104400002704A0912804B0912904280F391F4A1FBE
:104410005B1F209326043093270440932804509375
:10442000290480899189A289B38982179307A407F7
:10443000B507B8F58091300480618093300480899D
:104440009189A289B389281B390B4A0B5B0B2093F6
:104450002604309327044093280450932904848928
:1044600085FF0CC08091010D9091020DA091030D6C
:10447000B091040D0197A109B1090BC08091010D04
:104480009091020DA091030DB091040D0196A11D14
:10449000B11D8093010D9093020DA093030DB09375
:1044A000040D20913E0430913F044091400450910E
:1044B000410480912A0490912B04A0912C04B09186
:1044C0002D04280F391F4A1F5B1F20932A043093A5
:1044D0002B0440932C0450932D0480899189A28948
:1044E000B38982179307A407B507B8F58091300404
:1044F00080628093300480899189A289B389281BC6
:10450000390B4A0B5B0B20932A0430932B04409306
:104510002C0450932D04848984FF0CC08091050DD8
:104520009091060DA091070DB091080D0197A1097A
:10453000B1090BC08091050D9091060DA091070D5A
:10454000B091080D0196A11DB11D8093050D9093AA
:10455000060DA093070DB093080D8091D50C843003
:1045600039F48091DB0C90913004892380933004DE
:104570008091420490914304019790934304809367
:104580004204892B79F410924804109247048091D8
:1045900049048F5F80934904809149048A3011F463
:1045A0001092490480914C049091300489278093A3
:1045B000300410924E04FF91EF91DF91CF91BF91A3
:1045C000AF919F918F917F916F915F914F913F91AB
:1045D0002F910F900BBE0F900FBE0F901F9018954C
:1045E000F999FECF92BD81BD81E08FBB80B5089562
:1045F000F894F999FECF92BD81BD81E08FBB40B5A3
:104600004627842F992787FD9095262F30E0822317
:104610009323892B39F06F3F19F060BD84E006C009
:1046200084E104C0442321F060BD84E28FBBF99A89
:10463000789408958F929F92AF92BF92CF92DF921B
:10464000EF92FF920F93DF93CF930F920F92CDB71C
:10465000DEB75C016B017A014A0100E01EC0002355
:1046600019F021E030E008C0202F332727FD3095D6
:104670002227330F221F3327F60161916F01062F86
:10468000020F9C012F5F3F4F3A8329830E94F8223B
:1046900008948108910889819A8181149104F9F61E
:1046A000C7018A0D9B1D602F0E94F8220F900F906A
:1046B000CF91DF910F91FF90EF90DF90CF90BF905F
:1046C000AF909F908F900895CF93DF93EC01FB0103
:1046D0009A0190E0B1E019C0F999FECFF2BDE1BDB9
:1046E000BFBBA0B5992319F081E090E008C0892FE5
:1046F000992787FD90958827990F881F99273196CC
:104700009A2F980FA993215030402115310521F798
:10471000460F571FF999FECF52BD41BD81E08FBBB7
:1047200080B520E030E0981711F421E030E0C901B5
:10473000DF91CF910895882311F484E008958130AA
:1047400011F488E00895823021F0833011F480E282
:10475000089580E10895882311F480E80895813058
:1047600011F480E40895823021F0833011F480E167
:10477000089580E20895882311F480E1089581303E
:1047800011F480E20895823021F0833011F481E049
:10479000089580E4089580E090E00E94F0228A303D
:1047A00011F020E00CC086E99FE061E070E045E692
:1047B00050E00E94642320E0892B09F021E0822F41
:1047C000089580E090E06AE00E94F82281E090E0A5
:1047D00066E97FE045E650E00E941A230895CF92F3
:1047E000DF92EF92FF920F931F93082F6A017B01D4
:1047F000CB01BA0120E030E040E050E00E94403DB3
:10480000882314F484E035C1043608F459C00456F2
:1048100090E0043008F04BC0913089F0913030F0D6
:104820009230D1F0933009F01FC131C0E02FF0E099
:10483000EE0FFF1FEE0FFF1FEA56F04F08C0E02FEC
:10484000F0E0EE0FFF1FEE0FFF1FEA55F04FC082A2
:10485000D182E282F38208C110E0000F111F000F25
:10486000111F0A54104FC701B60120E030E040E7A5
:1048700052E40E947E3F20E030E040E752E40E9494
:104880007E3FF8016083718382839383EDC0E02FC4
:10489000F0E0EE0FFF1FEE0FFF1FEA53F04FD701BE
:1048A000C601B05880839183A283B383DDC00A30F0
:1048B00008F4DEC09F5F943009F4DAC00A50A9CF33
:1048C000C701B6010E944C400E94B43DE02FF0E0C9
:1048D000E132F10508F0CCC0E057FF4FEE0FFF1FAB
:1048E0000590F491E02D1994633010F486E0C1C076
:1048F0006093D60FB9C06093D90FB6C06093D70F3D
:1049000002C06093D80F0E94931FAEC0662321F0AF
:104910008091EB0F8460A6C08091EB0F8B7FA2C0CB
:10492000662321F08091EB0F80649CC08091EB0F97
:104930008F7B98C0662321F08091EB0F806803C0C5
:104940008091EB0F8F778093EB0F80E00E941B33F9
:104950008BC06093DA0F88C0C092DB0FD092DC0F5F
:10496000E092DD0FF092DE0F7FC0C092DF0FD09299
:10497000E00FE092E10FF092E20F76C0662321F0A3
:104980008091EB0F816003C08091EB0F8E7F80934D
:10499000EB0F0E94AE3968C0662341F08091EB0FA7
:1049A00084FD02C08AE065C080625CC08091EB0F2C
:1049B0008F7D58C0662321F08091EB0F886003C083
:1049C0008091EB0F877F8093EB0F0E94D42E4CC019
:1049D000662321F08091EB0F806144C08091EB0F42
:1049E0008F7C40C06093EC0F3FC0C092ED0FD0921F
:1049F000EE0FE092EF0FF092F00F36C0C092F10F81
:104A0000D092F20FE092F30FF092F40F2DC060936A
:104A1000F50F1092F60F28C0C092F70FD092F80F42
:104A2000E092F90FF092FA0F1FC0C092E30FD092FC
:104A3000E40FE092E50FF092E60F08C0C092E70F96
:104A4000D092E80FE092E90FF092EA0F0E944B112A
:104A50000BC0662321F08091EB0F826003C0809130
:104A6000EB0F8D7F8093EB0F0E94E12380E001C06C
:104A700083E01F910F91FF90EF90DF90CF9008950A
:104A8000BC018EEA93E040E051E00E941A230895B1
:104A9000CF93DF93EC016EEA73E040E051E00E94B7
:104AA0006423892B11F081E009C018828EEA93E01B
:104AB000BE0140E051E00E941A2380E0DF91CF91D7
:104AC0000895EF92FF920F931F93082F7B010E948E
:104AD000E51681E1089F80011124C80180509E4F96
:104AE000B70140E150E00E941A231F910F91FF90FF
:104AF000EF900895FF920F931F93F82E162F072F14
:104B000061E1869FB001112460507E4F812F902F6C
:104B100040E150E00E946423892B11F081E00DC038
:104B2000E12FF02F80E1DF011D928A95E9F78F2DAB
:104B3000612F702F0E94612580E01F910F91FF90DF
:104B400008958F929F92AF92BF92CF92DF92EF9291
:104B5000FF920F931F93DF93CF93CDB7DEB760978C
:104B60000FB6F894DEBF0FBECDBF882E80FF05C103
:104B70008AE08093D60F89E18093D90F1092D70FE6
:104B80001092D80F81E08093DA0F8AE097EDA3E2CC
:104B9000BCE38093DB0F9093DC0FA093DD0FB09309
:104BA000DE0F8FE692E1A3E0BBE38093DF0F9093EB
:104BB000E00FA093E10FB093E20F80E090E0AAE74E
:104BC000B4E48093E30F9093E40FA093E50FB093C8
:104BD000E60F80E090E0A0E0B0E08093E70F9093D4
:104BE000E80FA093E90FB093EA0F1092EC0F80E06A
:104BF00090E0A8ECB1E48093ED0F9093EE0FA093BA
:104C0000EF0FB093F00F0F2EF0E0AF2EF0E0BF2EBD
:104C1000FAEFCF2EF3E4DF2EF02DA092F10FB09239
:104C2000F20FC092F30FD092F40F8AEF90E09093BE
:104C3000F60F8093F50F80E090E0A0E8BFE380934B
:104C4000F70F9093F80FA093F90FB093FA0F10920B
:104C5000EB0F0F2EF0E0EF2EF0E0FF2EFAE70F2F14
:104C6000F3E41F2FF02DE092960FF092970F009330
:104C7000980F1093990FE0929A0FF0929B0F009368
:104C80009C0F10939D0FE0929E0FF0929F0F009348
:104C9000A00F1093A10FA092A60FB092A70FC092E1
:104CA000A80FD092A90FA092AA0FB092AB0FC092FA
:104CB000AC0FD092AD0FA092AE0FB092AF0FC092DA
:104CC000B00FD092B10F20E030EA4CE057E42093CF
:104CD000B60F3093B70F4093B80F5093B90F20938E
:104CE000BA0F3093BB0F4093BC0F5093BD0F20936E
:104CF000BE0F3093BF0F4093C00F5093C10F80E0A1
:104D000090E0A8E4B3EC8093C60F9093C70FA093F4
:104D1000C80FB093C90F8093CA0F9093CB0FA09385
:104D2000CC0FB093CD0F8093CE0F9093CF0FA09365
:104D3000D00FB093D10FE092A20FF092A30F009387
:104D4000A40F1093A50FA092B20FB092B30FC09210
:104D5000B40FD092B50F2093C20F3093C30F40937E
:104D6000C40F5093C50F8093D20F9093D30FA0938D
:104D7000D40FB093D50F0E94E12381FE12C0FE0133
:104D8000319680E1DF011D928A95E9F710E0AE2EA1
:104D9000EF2E812F6A2D7E2D0E9461251F5F183016
:104DA000C1F782FE14C080E093E060E00E94F82228
:104DB00081E093E060E00E94F82281E094E060E00E
:104DC0000E94F82282E094E060E00E94F82283FED4
:104DD0000AC08EEA93E060E00E94F8228FEA93E036
:104DE00060E00E94F82260960FB6F894DEBF0FBE16
:104DF000CDBFCF91DF911F910F91FF90EF90DF908A
:104E0000CF90BF90AF909F908F9008950E94CB233A
:104E1000882341F487E00E94B8338FEF0E94A125D8
:104E20000E94A8340895EF92FF920F931F93082FCA
:104E30007B010E94E51610E081E091E09C01029F59
:104E4000C001039F900D129F900D112480509D4F23
:104E5000B70140E051E00E941A231F910F91FF908B
:104E6000EF9008951F93CF93DF93182FEB01282F16
:104E700030E081E091E0289FB001299F700D389FBC
:104E8000700D112460507D4FCE0140E051E00E9432
:104E90006423892B11F081E006C01882812FBE01A6
:104EA0000E94132780E0DF91CF911F9108952091F8
:104EB000AC0C8091AD0C821769F0922F9F5F9432F9
:104EC00009F490E08091AF0C281711F49093AF0C87
:104ED0009093AC0C08952091AD0C8AE3289F90012B
:104EE00011242C573B4FC90108959091AC0C80912F
:104EF000AD0C891719F420E030E006C08AE3989FD2
:104F0000900111242C573B4FC90108952091AC0CFE
:104F10002F5F243209F420E08091AD0C281729F48A
:104F200070E060E090E080E017C030E08AE390E05D
:104F3000289FF001299FF00D389FF00D1124EC57A8
:104F4000FB4FDF015A96728D11966C911197129654
:104F50009C91129713968C91272F362F492F582FFB
:104F6000B901CA01089520E09091AC0C8091AE0C7B
:104F7000981709F421E0822F0895AF92BF92CF9243
:104F8000DF92EF92FF920F931F93CF93DF93EC0189
:104F9000EAA8FBA80CA91DA98D8980FF18C0609103
:104FA000DD0C70E0882777FD8095982F0E94E23D08
:104FB0002AE037ED43E25CE30E947E3F9B01AC01B7
:104FC000C801B7010E947E3F7B018C012DC082FD8C
:104FD00017C06091DC0C70E0882777FD8095982FD2
:104FE0000E94E23D2AE037ED43E25CE30E947E3F0F
:104FF0009B01AC01C801B7010E947E3F7B018C017F
:10500000DEA4CFA4B8A8A9A8C801B7012D2D3C2DB6
:105010004B2D5A2D0E94433F181634F48D2D9C2D94
:10502000AB2DBA2D7C018D01C801B70120E030E025
:1050300040E85FE30E94433F181654F00F2EF0E063
:10504000EF2EF0E0FF2EF0E80F2FFFE31F2FF02DE3
:10505000B701C801DF91CF911F910F91FF90EF90A1
:10506000DF90CF90BF90AF9008957F928F929F92E4
:10507000AF92BF92CF92DF92EF92FF920F931F9366
:10508000CF93DF939090AC0C8090AD0C0F2EF9E98C
:10509000EF2EF6E7FF2EF6E90F2FFEE71F2FF02D7C
:1050A0008AE3782E38C0979CE0011124CC57DB4F5F
:1050B000CE010E94BD275B016C01A80197010E94EF
:1050C000433F18162CF4C801B701A801970104C08A
:1050D000C601B501A60195010E947E3F6E8F7F8FAC
:1050E00088A399A3EAA4FBA40CA51DA56E8D7F8DB2
:1050F00088A199A1A80197010E94433F181624F4A2
:10510000EE8EFF8E08A319A3939484E2981609F4F7
:10511000992486017501981431F6E092D00CF09232
:10512000D10C0093D20C1093D30CDF91CF911F912F
:105130000F91FF90EF90DF90CF90BF90AF909F9036
:105140008F907F9008958091F90C9091FA0CA09126
:10515000FB0CB091FC0C8093B00C9093B10CA0931D
:10516000B20CB093B30C8091FD0C9091FE0CA09109
:10517000FF0CB091000D8093B40C9093B50CA093EC
:10518000B60CB093B70C8091010D9091020DA091D7
:10519000030DB091040D8093B80C9093B90CA093BB
:1051A000BA0CB093BB0C8091050D9091060DA091A7
:1051B000070DB091080D8093BC0C9093BD0CA0938B
:1051C000BE0CB093BF0C08959091AD0C8091AC0CC7
:1051D000981718F08D5D891B08958150891B0895DB
:1051E0004F925F926F927F928F929F92AF92BF92F7
:1051F000CF92DF92EF92FF920F931F93CF93DF93A3
:105200008091AD0C882309F484E2782E7A94609022
:10521000AF0C761409F4F2C08AE3789E40011124A1
:1052200084E894E0880E991EF401A68CB78CC0A087
:10523000D1A022A133A144A155A1CA01B9010E9464
:10524000673CF40126A137A140A551A50E947E3FED
:105250007B018C01B501C601A80197010E94403D68
:1052600087FD04C0D801C70157016D01C501D601F2
:10527000F401828F938FA48FB58F772011F444E2CD
:10528000742E7A94761409F04EC08091AC0C681696
:1052900009F050C00E94E0174DC0769CE001112437
:1052A000CC57DB4F772011F434E2732E7A9480913F
:1052B000AC0C781611F40E94E017AE8CBF8CC8A01D
:1052C000D9A06A8D7B8D8C8D9D8DA60195010E9444
:1052D000403D882331F12AA13BA14CA15DA1CA0127
:1052E000B9010E94673C2EA13FA148A559A50E9483
:1052F0007E3FF401228D338D448D558D0E94673C95
:105300007B018C01A60195010E94403D88232CF46D
:10531000EA8EFB8E0C8F1D8F04C0AA8EBB8ECC8EA6
:10532000DD8E4E0102C02AE3622E8091AF0C78160A
:1053300009F0B3CFA090AF0CBA2CB394F4E2BF162F
:1053400009F4BB248AE3A89E800111240C571B4F4B
:105350005090AD0C9AE3492E4CC0B49CE00111244E
:10536000CC57DB4FF801C28CD38CE48CF58C6A8C63
:105370007B8C8C8C9D8CC701B601A40193010E948B
:10538000403D88231CF5F80122A133A144A155A179
:10539000CA01B9010E94673CF80126A137A140A5C6
:1053A00051A50E947E3F9B01AC01C701B6010E943E
:1053B000673C7B018C01A40193010E94403D88233E
:1053C0002CF4EA8EFB8E0C8F1D8FAB2C6A8D7B8D9F
:1053D0008C8D9D8D2E8D3F8D48A159A10E94403D01
:1053E000882309F4AB2CB394F4E2BF1609F4BB2470
:1053F0008E01B51409F0B1CFA092AF0CDF91CF911F
:105400001F910F91FF90EF90DF90CF90BF90AF90E2
:105410009F908F907F906F905F904F9008950E9423
:10542000E0178091AC0C8093AF0C0E94F028089597
:1054300084E2E0EBFCE0DF011D928A95E9F710922F
:10544000AC0C1092AD0C81E08093AE0C1092AF0CBE
:1054500008952F923F924F925F926F927F928F9218
:105460009F92AF92BF92CF92DF92EF92FF920F93F3
:105470001F93DF93CF93CDB7DEB7C454D0400FB6A0
:10548000F894DEBF0FBECDBF4C011B018091AD0C67
:105490009AE3899F3001112424E834E0620E731EE0
:1054A000D3011D929A95E9F7FB012485D301559606
:1054B0002C9384819581A681B781F30186AB97AB4C
:1054C000A0AFB1AFFB0180859185A285B385F301C3
:1054D000868B978BA08FB18FCE01419621FF09C09B
:1054E000DC01E9EFFCE080E101900D928150E1F7F1
:1054F00008C0DC01E0EBFCE080E101900D928150FE
:10550000E1F776E9472E7FE0572E5E010894A11C53
:10551000B11C61E1C62ED12CCC0EDD1E00E0EE24C4
:10552000FF24F401EE0DFF1D608171818281938162
:10553000D2012D913D914D915C910E947E3F0E9440
:105540004E3F9B01AC01F50120833183428353839D
:10555000F60180819181A281B381281B390B4A0B0E
:105560005B0B57FF07C050954095309521953F4FF5
:105570004F4F5F4FF301EE0DFF1D208331834283B8
:105580005383F30180899189A289B3892817390748
:105590004A075B0710F49C01AD01D30150962D938F
:1055A0003D934D935C935397F501608171818281A6
:1055B0009381D6012D913D914D915C91621B730BAE
:1055C000840B950B0E94E23DF201208131814281E2
:1055D00053810E94473DE1E2F0E0EC0FFD1FEE0D2C
:1055E000FF1D608371838283938320E030E040E07D
:1055F00050E00E94403D88234CF4D30154961C9106
:10560000802F0E94AB23182BF301148B0F5F24E033
:1056100030E0E20EF31E420E531EA20EB31EC20E67
:10562000D31E043009F07DCFF30180899189A289CE
:10563000B3890097A105B10511F480E0ABC18E01DB
:105640000F5D1F4FC8010E94062ED30196966D93E1
:105650007D938D939C93999786EB9FE0B8010E9470
:10566000A62DF30162A373A384A395A386EA9FE00A
:10567000B8010E94A62D9B01AC01D3019E966D93AB
:105680007D938D939C93D19755968C91E82F80FFB5
:1056900006C0F30122AB33AB44AB55AB1BC0D10109
:1056A0006D917D918D919C91D301D2966D937D9357
:1056B0008D939C93D597E3FF0DC096962D913D91C8
:1056C0004D915C9199970E947E3FF30162AB73AB61
:1056D00084AB95AB9091AD0C8091AC0C981729F0F0
:1056E000D30155968C9181FF0AC080E090E0A0E044
:1056F000B0E0F301828F938FA48FB58F6EC020EC42
:105700003CE025963FAF2EAF25970F2EF0E02F2ED1
:10571000F0E03F2EF0E04F2EF0E05F2EF02D2396CC
:105720001FAE1EAE23972596AEADBFAD2597AD90AB
:10573000BD90CD90DD902596BFAFAEAF2597E1E24D
:10574000F0E0EC0FFD1F23962EAD3FAD2397E20F47
:10575000F31FE080F18002811381C601B501A80129
:1057600097010E947E3F9B01AC01C201B1010E94E2
:10577000663C1B012C0151E3852E912C8C0E9D1E45
:1057800023968EAD9FAD2397880E991EC801B70151
:10579000A60195010E94663CD4016D937D938D9383
:1057A0009C9313972396EEADFFAD239734962396E3
:1057B000FFAFEEAF2397709709F0B5CFC201B101EB
:1057C0002FEE3FEF4FE75FE30E94433F181654F47C
:1057D00080E090E0A0E0B0E0F30182A793A7A4A747
:1057E000B5A769C0C201B1012FEE3FEF4FE75FEBF4
:1057F0000E94403D88232CF489E996E7A6E9BEE79C
:10580000EBCFCE01C1960E94062E86EB9FE0BE0133
:105810006F5C7F4F0E94A62D7B018C0160E070E0E1
:1058200080E89FE3A20191010E94663C20E030E005
:1058300040E05FE30E947E3F0E940B405B016C01F1
:10584000C801B7012091DB0F3091DC0F4091DD0FD3
:105850005091DE0F0E947E3FA60195010E947E3F7F
:105860007B018C0160E070E080E89FE3A601950178
:105870000E94663C9B01AC01C801B7010E94473DF4
:105880007B018C0120E030E040E050E00E94403D90
:10589000882354F40F2EF0E0EF2EF0E0FF2EF0E01E
:1058A0000F2FF0E01F2FF02DD3019A96ED92FD926D
:1058B0000D931C939D97F301858981FD6AC0C301F7
:1058C0000E94BD275B016C01E090D00CF090D10CE0
:1058D0000091D20C1091D30CA80197010E94433F74
:1058E000181674F4C801B701A80197010E947E3F01
:1058F000D3015E966D937D938D939C9391970BC08E
:10590000C601B501A60195010E947E3FF301668F95
:10591000778F80A391A3D3019A96ED90FD900D917E
:105920001C919D975E966D917D918D919C91919723
:10593000A80197010E94433F18162CF4F301E68E4C
:10594000F78E00A311A3A092D00CB092D10CC092FC
:10595000D20CD092D30CA0ECBCE0FE01B19680E159
:1059600001900D928150E1F7A0EBBCE0FE01319671
:1059700080E101900D928150E1F78091AE0C80930F
:10598000AD0C8F5F843209F480E08093AE0C0E94EE
:10599000F02881E0CC5BDF4F0FB6F894DEBF0FBE7E
:1059A000CDBFCF91DF911F910F91FF90EF90DF90CE
:1059B000CF90BF90AF909F908F907F906F905F90AF
:1059C0004F903F902F9008956F927F928F929F9269
:1059D000AF92BF92CF92DF92EF92FF920F931F93FD
:1059E000CF93DF934C013B015A01FB018081F4010D
:1059F000E80FF11DEF0189918D3229F48181219603
:105A0000CC24C39405C08B3211F481812196CC241F
:105A100020E030E040E050E0DD24E0E070E0682F7E
:105A200060536A30F8F4EF5FE930C0F47111DA9432
:105A3000DA01C901F2E0880F991FAA1FBB1FFA956E
:105A4000D1F7280F391F4A1F5B1F220F331F441F36
:105A5000551F260F311D411D511D09C0772339F4F3
:105A6000D39405C06E3F29F4772319F471E089912E
:105A7000D6CFEE2311F480E050C0CA01B9010E94D4
:105A8000E03D7B018C0120E030E040E050E00E94EE
:105A9000403D882369F42BC0C801B7012AE037EDE7
:105AA00043E25CE30E947E3F7B018C01F2E0DF0E6B
:105AB0008FEFD8168CF3D81659F4C801B7012DEC26
:105AC0003CEC4CEC5DE30E947E3F7B018C010FC0FF
:105AD000DD2069F0C801B70120E030E040E251E488
