:100000000C9466010C9478010C9478010C941931CD
:100010000C94DF2D0C9478010C9478010C947801E9
:100020000C9478010C9478010C9478010C942F2E88
:100030000C9478010C9478010C9478010C9478015C
:100040000C94192E0C9478010C944F300C94EF30D2
:100050000C9478010C9478010C9478010C9478013C
:100060000C9478010C947801084AD73B3BCE016E82
:1000700084BCBFFDC12F3D6C74319ABD56833DDAFF
:100080003D00C77F11BED9E4BB4C3E916BAAAABE0E
:10009000000000803F05A84CCDB2D44EB93836A937
:1000A000020C50B9918688083CA6AAAA2ABE000074
:1000B00000803F000D0A4772626C20312E316820AB
:1000C0005B27242720666F722068656C705D0D0ABF
:1000D00000244E005B4F50543A005B5645523A3173
:1000E0002E31682E32303139303832353A005B5497
:1000F0004C4F3A005B4739323A0033300032380017
:100100005B4700204700204D00204600205400336C
:10011000382E005B47433A47005B484C503A242452
:1001200020242320244720244920244E2024783DC5
:1001300076616C20244E783D6C696E6520244A3DC2
:100140006C696E652024534C502024432024582091
:100150002448207E2021203F206374726C2D785D1E
:100160000D0A00414C41524D3A007C413A007C4F0F
:10017000763A007C57434F3A007C506E3A007C46FA
:100180003A007C42663A007C57506F733A007C4DCF
:10019000506F733A00536C65657000446F6F723A2C
:1001A00000436865636B00416C61726D00486F6D60
:1001B00065004A6F6700486F6C643A0052756E00C4
:1001C00049646C65000D0A005B5052423A0065724A
:1001D000726F723A000000A0420000A0420000A02E
:1001E0004200803B4500803B4500803B4500A00C21
:1001F0004700A00C4700A00C470000A0C30000521D
:10020000C3000070C10A000019010AD7233C6F1215
:10021000033B00007A440000000000000000C841D9
:100220000000FA43FA000000803F6F6B0D0A005394
:100230006C656570696E6700526573746F72696E84
:1002400067207370696E646C6500526573746F72B9
:10025000696E672064656661756C74730050676DC4
:1002600020456E6400436865636B204C696D69745A
:100270007300436865636B20446F6F720044697359
:1002800061626C656400456E61626C656400436127
:100290007574696F6E3A20556E6C6F636B656400A0
:1002A000272448277C2724582720746F20756E6CDC
:1002B0006F636B00526573657420746F20636F6E9B
:1002C00074696E7565005B4D53473A0011241FBE7B
:1002D000CFEFD8E0DEBFCDBF27E0A0E0B1E001C0A6
:1002E0001D92A730B207E1F70E9448310C94943B6D
:1002F0000C9400008F929F92AF92BF92CF92DF92A8
:10030000EF92FF920F931F93CF93DF937C016B01CA
:10031000DC01EC91F0E0E954F94F8081EF018D327E
:1003200029F52296818101E0912CF0E010E020E097
:1003300030E0A9015E01E0EDE80FEA3018F5FF5F5B
:10034000F930E0F491101150A5E0B0E00E946D3B4F
:100350009B01AC01220F331F441F551F2E0F311D6F
:10036000411D511D2196D5018C91E4CF8B3219F09E
:10037000219600E0D9CF22968181FBCF9110F2CF58
:100380001F5FF0CFEE3F29F4911003C0992493949E
:10039000E9CFFF23F9F0CA01B9010E944D384B01A2
:1003A0005C0120E030E0A9010E949B3781112BC045
:1003B000002309F445C0B7FAB094B7F8B094F60139
:1003C00080829182A282B382C75BD640C150F7017E
:1003D000C083F1E08F2FDF91CF911F910F91FF909C
:1003E000EF90DF90CF90BF90AF909F908F90089547
:1003F0002AE037ED43E25CE3C501B4010E94FD3918
:100400004B015C011E5F1F3F9CF31F3F59F42DEC15
:100410003CEC4CEC5DE3C501B4010E94FD394B019D
:100420005C01C6CF112321F220E030E040E251E42C
:10043000C501B4010E94FD394B015C011150F2CF9E
:10044000D6018D929D92AD92BC921397BDCF2FB7DE
:10045000F8949091C005892B8093C0052FBF089513
:100460002FB7F8949091BF05892B8093BF052FBFBC
:1004700008959FB7F8948093BE059FBF08959FB7D6
:10048000F8942091BD05809582238093BD059FBF80
:1004900008952FB7F8949091BD05892B8093BD05E1
:1004A0002FBF0895AF92BF92CF92DF92EF92FF924B
:1004B0000F931F93CF93DF93EC010CE016E05C01E8
:1004C0008CE0A80EB11CC990D990E990F99020E079
:1004D00030E0A901C701B6010E94BD391816DCF051
:1004E000F80121913191419151918F01C701B601DC
:1004F0000E949B3787FD0FC0CA15DB0521F780E0FE
:10050000DF91CF911F910F91FF90EF90DF90CF90EF
:10051000BF90AF90089581E0F3CF4F925F926F92BA
:100520007F928F929F92AF92BF92CF92DF92EF9283
:10053000FF920F931F93CF938B016C017B01C0E05F
:1005400082E0882E912CA12CB12CC1113BC0F80166
:10055000608171818281938144805580668077803B
:10056000640D751D861D971DA50194010E94483BD1
:10057000CA01B9010E944F382091E8053091E90580
:100580004091EA055091EB050E94A537F601619371
:100590007193819391936F01CF5FF4E0EF0EF11CA3
:1005A000C33099F6CF911F910F91FF90EF90DF909C
:1005B000CF90BF90AF909F908F907F906F905F9003
:1005C0004F900895C130F1F4F8016081718182810A
:1005D0009381448055806680778064197509860907
:1005E0009709A50194010E94483BCA01B9010E94E4
:1005F0004F382091EC053091ED054091EE0550917A
:10060000EF05C2CFF70160817181828193810E94E1
:100610004F382091F0053091F1054091F20550914D
:10062000F305B2CF96B19095892F877039F082E0AB
:1006300091FF80E090FD816092FD84600895CF93EA
:10064000DF93C091BB05D091BC052097C9F0809184
:1006500091058160809391056091A7057091A8052F
:100660008091A9059091AA059B01AC010E94FD39DA
:100670006A8B7B8B8C8B9D8B1092BC051092BB057B
:10068000DF91CF91089590911906492F80911A0614
:10069000282F90FF11C094E080FF10C080E241FD40
:1006A000986021FD806442FD906122FD80689093F6
:1006B0000B0280930C02089590E0EECF80E0EFCF24
:1006C00080912D0682FF13C0289A80910B0280939F
:1006D0001C02809118068250990B880F8195809397
:1006E0001B0280916F00826080936F0008952898AC
:1006F000ECCF9091DC05911105C0811104C02C98BC
:100700001092E6050895803119F42D982C9AF8CFAF
:100710002D9AFCCF249A259A2C980895E0911D01DA
:1007200091E09E0F993609F490E0209187012917F6
:1007300061F0F0E0E25EFE4F808390931D018091B6
:10074000C10080628093C10004C02091BD0524FFD8
:10075000ECCF0895CF93DF93C7EBD6E08991811159
:1007600003C0DF91CF9108950E948E03F7CF1092BE
:10077000C10590912D0697FD03C090E29093C105AD
:10078000882331F08091C10590E289278093C105CB
:1007900008958F929F92AF92BF92CF92DF92EF9285
:1007A000FF920F931F93CF93DF93CDB7DEB72D97B3
:1007B0000FB6F894DEBF0FBECDBF6B017C01042FD6
:1007C00020E030E0A9010E949B3787FF07C08DE23F
:1007D0000E948E03F7FAF094F7F8F094102F12307D
:1007E00008F054C000FF0AC020E030E040E251E4CD
:1007F000C701B6010E94FD396B017C0120E030E0A9
:1008000040E05FE3C701B6010E94A6360E94173898
:1008100010E03AE0832E912CA12CB12CE12FF0E0D6
:100820006115710581059105E9F581E090E08C0F76
:100830009D1FE80FF91F80E3101708F445C010133F
:1008400009C0E1E0F0E0EC0FFD1FE10FF11D80E3D6
:1008500080831F5FEE24E394F12CEC0EFD1EE10E6D
:10086000F11C111134C02D960FB6F894DEBF0FBEE7
:10087000CDBFDF91CF911F910F91FF90EF90DF904F
:10088000CF90BF90AF909F908F90089520E030E080
:1008900048EC52E4C701B6010E94FD396B017C01AE
:1008A00012509DCFEE24E394F12CEC0EFD1EEE0EC3
:1008B000FF1EA50194010E94263B605DF701608345
:1008C000B901CA011F5FAACF1F5F8193B5CF101373
:1008D00003C08EE20E948E03F70182917F010E9485
:1008E0008E031150BECF20912D0640E020FF07C09F
:1008F0002BE832E441E25DE30E94FD3941E00C94D3
:10090000C90320912D0643E020FF07C02BE832E405
:1009100041E25DE30E94FD3944E00C94C9030F936A
:100920001F93CF938C01C0E0F80161917191819187
:1009300091918F010E948104C23019F08CE20E94D3
:100940008E03CF5FC33081F7CF911F910F91089530
:10095000CF93DF93843658F06AE00E94063BC0E3F1
:10096000C90F6AE00E94063BD0E3D90F04C0C0E083
:10097000D0E08A30B0F7805D0E948E03DD2319F04D
:100980008D2F0E948E03CC2329F08C2FDF91CF91E5
:100990000C948E03DF91CF910895CF93DF93EC01F8
:1009A000FE0184912196811103C0DF91CF910895BA
:1009B0000E948E03F5CF85EC91E00C94CD04CF938B
:1009C000C82F8EEC91E00E94CD048C2F0E94A804C9
:1009D000CF910C94DB04811104C08AE292E00C9464
:1009E000CD040C94DF04CF92DF92EF92FF92CF936D
:1009F000DF93D82F6A017B01C22F84E20E948E030D
:100A00008D2F0E94A8048DE30E948E034C2FC701F6
:100A1000B6010E94C903DF91CF91FF90EF90DF9064
:100A2000CF900C94DB04CF93DF93D82FC62F84E2B2
:100A30000E948E038D2F0E94A8048DE30E948E03D6
:100A40008C2F0E94A804DF91CF910C94DB04EF92CD
:100A5000FF920F931F93CF93DF936091180670E07E
:100A600080E00E94130560911B0670E081E00E9407
:100A700013056091190670E082E00E9413056091F1
:100A80001A0670E083E00E94130560912D0662FB58
:100A9000662760F970E084E00E94130560912D06DE
:100AA00066FB662760F970E085E00E94130580917F
:100AB0002D06082E000C990B692F661F6627661FEE
:100AC00070E086E00E94130560911C0670E08AE0E9
:100AD0000E94130540911D0650911E0660911F064D
:100AE0007091200623E08BE00E94F30440912106E0
:100AF00050912206609123067091240623E08CE039
:100B00000E94F30460912D06617070E08DE00E94F8
:100B1000130560912D0665FB662760F970E084E19E
:100B20000E94130560912D0663FB662760F970E053
:100B300085E10E94130560912D066295617070E059
:100B400086E10E94130560912E0670E087E10E9405
:100B5000130540912F065091300660913106709137
:100B6000320623E088E10E94F3044091330650915D
:100B70003406609135067091360623E089E10E94C3
:100B8000F30460913706709138068AE10E941305DC
:100B90004091390650913A0660913B0670913C06AF
:100BA00023E08BE10E94F304409125065091260634
:100BB000609127067091280620E08EE10E94F304E0
:100BC0004091290650912A0660912B0670912C06BF
:100BD00020E08FE10E94F30470E060E080E20E9478
:100BE000130584E6F82E10E0C8EED5E000E0E02E14
:100BF000EF0C123011F1133069F11130C9F0488156
:100C000059816A817B8123E08E2D0E94F3040F5F5E
:100C10002496033061F78AE0F80E1F5F8CE8F81223
:100C2000E3CFDF91CF911F910F91FF90EF90089547
:100C30004C855D856E857F85E6CF20E030E041E61E
:100C400055E4688D798D8A8D9B8D0E94A537AB0107
:100C5000BC01D9CF4CA15DA16EA17FA17058D3CFAB
:100C60008DE50E948E030C94DB04CF93DF93CDB708
:100C7000DEB72C970FB6F894DEBF0FBECDBF88EC61
:100C800091E00E94CD046EEC75E0CE0101960E94C9
:100C90008D02CE0101960E948F048AE30E948E038A
:100CA0008091E0050E94A8040E9430062C960FB6A1
:100CB000F894DEBF0FBECDBFDF91CF9108954F9264
:100CC0005F926F927F928F929F92AF92BF92CF92DC
:100CD000DF92EF92FF92CF93DF9300D000D0CDB799
:100CE000DEB7E2ECF5E080859185A285B385898346
:100CF0009A83AB83BC83C080D180E280F380448040
:100D0000558066807780C701B601640D751D861D0C
:100D1000971D22E0822E912CA12CB12CA5019401CB
:100D20000E94483BA1E0B1E02D933D934D935C932D
:100D30001397C701B6016419750986099709A501BA
:100D400094010E94483B2093050130930601409393
:100D500007015093080189819A81AB81BC818093FE
:100D6000090190930A01A0930B01B0930C010F901D
:100D70000F900F900F90DF91CF91FF90EF90DF9049
:100D8000CF90BF90AF909F908F907F906F905F902B
:100D90004F900895BF92CF92DF92EF92FF920F9300
:100DA0001F93CF93DF937C01FC0102A513A5D4A56B
:100DB000C5A5818980FF33C06091E30570E090E0B4
:100DC00080E00E944F382AE037ED43E25CE30E9466
:100DD000FD399B01AC01B8018D2F9C2F0E94FD397C
:100DE0008B01D82FC92F20E030E040E85FE3B80145
:100DF0008D2F9C2F0E94BD39181624F000E010E0C2
:100E0000D0E8CFE3B8018D2F9C2FDF91CF911F91B8
:100E10000F91FF90EF90DF90CF90BF90089582FDEB
:100E200017C06091E20570E090E080E00E944F38CA
:100E30002AE037ED43E25CE30E94FD399B01AC01FF
:100E4000B8018D2F9C2F0E94FD398B01D82FC92FFF
:100E5000F701B6A0C7A0D0A4F1A498014D2F5C2F34
:100E60006B2D7C2D8D2D9F2D0E949B3787FFBBCF37
:100E70000B2D1C2DDD2DCF2DB6CF80913202909100
:100E80001305981739F02EE2829FC00111248D5C62
:100E90009D4F089590E080E008950E943D07892BC2
:100EA00019F082E00C94490208952F923F924F92DC
:100EB0005F926F927F928F929F92AF92BF92CF92EA
:100EC000DF92EF92FF920F931F93CF93DF9300D0A7
:100ED00000D0CDB7DEB700911305002309F486C01A
:100EE000098339813150398310913102131709F484
:100EF00066C0C32ED12CEEE23E9FC00111249C019E
:100F00002D5C3D4F7901F90176888788908CA18C02
:100F1000628D738D848D958D9B01AC010E94A636E8
:100F2000F701268D378D40A151A10E94FD39B62EC3
:100F3000E72EF82E9B83262F372F482F592F672D0A
:100F4000782D892D9A2D0E949B3787FF03C0B72CDF
:100F50007401AB828EE28C9DF0018D9DF00D112409
:100F6000ED5CFD4F8B2D9E2DAF2DBB81828B938B26
:100F7000A48BB58BF9818F2FF11101C080E1FF2483
:100F8000FA94F80E309032021F1133C0131102C0D0
:100F90000E941F03EEE21E9FC00111248D5C9D4F35
:100FA0009A83898333243394310EF0E13F1201C0D8
:100FB000312C8EE2282E031185C0109331020F9040
:100FC0000F900F900F90DF91CF911F910F91FF9095
:100FD000EF90DF90CF90BF90AF909F908F907F90D9
:100FE0006F905F904F903F902F90089520E129835C
:100FF00078CF29818EE2289F900111242D5C3D4FEE
:101000003C832B832EE2E22E8F2C912CFE9CC00180
:101010001124FC01ED5CFD4FFA83E983F11002C05D
:1010200090E1F92EFA94F31002C00E941F03E89C8D
:10103000C001E99C900D11249C012D5C3D4F69017C
:10104000F90146885788608C718CA30192016289EE
:101050007389848995890E949B37882339F1F60129
:10106000628D738D848D958D9B01AC010E94A63697
:10107000F601268D378D40A151A10E94FD39EB81EB
:10108000FC8122893389448955890E94A6364B0107
:101090005C01AC019B01C301B2010E94BD39F601A4
:1010A00018165CF4828A938AA48AB58A29813A81C7
:1010B0003C832B831F11A8CF6DCF428A538A648A49
:1010C000758AF4CFC32CD12C329CC00111249C0111
:1010D0002D5C3D4F7901E981FA814288538864880B
:1010E0007588F90182889388A488B588A501940140
:1010F000C301B2010E949B3787FF26C0E981FA81B4
:10110000628D738D848D958D9B01AC010E94A636F6
:10111000E981FA81268D378D40A151A10E94FD39C8
:10112000A30192010E94A6362B013C01AC019B0158
:10113000C501B4010E94BD39181634F4F701428A82
:10114000538A648A758A132D2C9CF0012D9CF00D16
:101150001124ED5CFD4F26893789408D518D6289C0
:101160007389848995890E949B37811101C0132D51
:101170003394F0E13F1201C0312CFA82E9821BCF97
:101180006F927F928F929F92AF92BF92CF92DF9297
:10119000EF92FF920F931F93CF93DF93EB018C019C
:1011A0005B018CE0A80EB11C89E9682E96E7792EC8
:1011B00026E9822E3EE7932EC990D990E990F990C6
:1011C00020E030E0A901C701B6010E949B378823C7
:1011D000B9F0A7019601F801608171818281938144
:1011E0000E94A5376B017C01E894F7F89301A401F4
:1011F000C701B6010E94BD39181614F03601470127
:101200000C5F1F4FCA15DB05B9F6B301C401DF91AE
:10121000CF911F910F91FF90EF90DF90CF90BF90F3
:10122000AF909F908F907F906F90089593B1809131
:101230002D0686FF0BC09E7059F091FB882780F920
:1012400092FD8260987029F0846008959095F3CFA4
:1012500080E00895EBE6F0E08081817F8083E8E61E
:10126000F0E080818E7F8083089584B1817F84B98E
:1012700085B18E6085B980912D0683FF0BC080916A
:101280006B008E6080936B0080916800816080931A
:10129000680008950C942A0962EC75E085E596E0F3
:1012A0000C948D02F894F999FECF92BD81BD81E036
:1012B0008FBB20B5862F8227082E000C990B50E09B
:1012C00086239523892B49F084E16F3F11F060BD9F
:1012D00084E08FBBF99A789408952617E1F360BDF6
:1012E00084E2F7CF9F92AF92BF92CF92DF92EF92BC
:1012F000FF920F931F93CF93DF935C018A017B01D1
:10130000E40EF51EEB01912C6C01C61AD70ACE0132
:101310008C0D9D1D21E0911007C0292D990C330BD8
:10132000232F221F2227221F6991962E920E0E94A0
:101330005209CE15DF0559F7692DC501800F911FA0
:10134000DF91CF911F910F91FF90EF90DF90CF90A1
:10135000BF90AF909F900C9452096AE090E080E0BB
:101360000E94520945E550E068EE75E081E090E0AA
:101370000C947209F999FECF92BD81BD81E08FBBBB
:1013800080B508959F92AF92BF92CF92DF92EF9275
:10139000FF920F931F93CF93DF935B018A017C0130
:1013A000E40EF51EEC01912C6B01C81AD90AC60196
:1013B0008C0F9D1F0E94BA0921E0911007C0292DB2
:1013C000990C330B232F221F2227221F982E920EB7
:1013D0008993CE15DF0559F7C501800F911F0E9433
:1013E000BA0921E030E0891511F030E020E0C901B0
:1013F000DF91CF911F910F91FF90EF90DF90CF90F1
:10140000BF90AF909F9008959091DC05911105C019
:1014100086FF04C0439A1092E60508954398FBCFD7
:10142000E1E0F1E08CE1DF011D928A95E9F710928D
:1014300032021092130581E0809300011092310274
:1014400008954F925F926F927F92AF92BF92CF9228
:10145000DF92EF92FF920F931F93CF93DF93EC01F4
:101460005C012CE0A20EB11C8C01C12CD12C7601A8
:10147000F80141905190619071908F0120E030E02F
:10148000A901C301B2010E949B37882371F0A30117
:101490009201C301B2010E94FD399B01AC01C70159
:1014A000B6010E94A6366B017C010A151B0501F7E7
:1014B000C701B6010E949C3A6B017C01AC019B0103
:1014C00060E070E080E89FE30E94A5372B013C01BB
:1014D00069917991899199915E01F4E0AF1AB1080F
:1014E000A30192010E94FD39F5016083718382831B
:1014F0009383C017D10761F7C701B601DF91CF9180
:101500001F910F91FF90EF90DF90CF90BF90AF9021
:101510007F906F905F904F9008952F923F924F92DF
:101520005F926F927F928F929F92AF92BF92CF9273
:10153000DF92EF92FF920F931F93CF93DF93CDB77C
:10154000DEB7C654D1090FB6F894DEBF0FBECDBFCB
:101550002091DF052AA320FDE1C624702BAB30913A
:10156000130539AF4EE2349FC0011124DC01AD5C9C
:10157000BD4F2396BFAFAEAF2397BAA1B270BCAB3D
:10158000409132024AAF4F5F4D8F403109F458C746
:101590004BAF5EE2ABAD5A9FC0011124FC01EB5B87
:1015A000FD4F2596FFAFEEAF2597909114058091E2
:1015B0001505981709F4B2C68091BB059091BC053A
:1015C000892B09F079C0EBA9EE2309F40FC2239609
:1015D0002EAD3FAD23973093BC052093BB054091C2
:1015E000BB055091BC055A874987452B09F496C61F
:1015F0001091910510FF01C2109291051092A30560
:101600001092A4051092A5051092A605A985BA8589
:101610005A962D913D914D915C915D9729833A8326
:101620004B835C8360E070E080E09FE30E94A5371D
:101630006D837E838F839887E985FA85468C578CE6
:1016400060A071A082889388A488B588FCA9FF2334
:1016500009F4A1C222E02093A205A50194010E94F1
:10166000FD399B01AC01C301B2010E94A5366B019B
:101670007C0120E030E0A9010E949B3787FF7AC2FD
:1016800029813A814B815C81CA01B9010E94A63649
:10169000A30192010E94FD399B01AC01C501B40177
:1016A0000E94A5360E949C3A6093AF057093B005E6
:1016B0008093B1059093B20580913A05482F50E090
:1016C0005A8B498B86E0849FF001859FF00D112491
:1016D000EA5EFA4F809190058483A091BB05B0919A
:1016E000BC05BE87AD875E96BC91BFA3ED85FE8528
:1016F000F78DF8A7AD85BE859096BC91B9A7ED850D
:10170000FE85F1A1FAA720919E0530919F05409199
:10171000A0055091A1056FA178A58B2F9F2F0E9446
:10172000A5366DAB7EAB8FAB98AF20E030E0A90162
:101730000E949B3787FF04C01DAA1EAA1FAA18AECD
:101740002091AB052D8B3091AC053E8B4091AD05C2
:101750004F8B5091AE05588F8091B3058E8F90912D
:10176000B4059F8FA091B505A8A3B091B605B9A304
:10177000E091B705EBA7F091B805FCA72091B9055A
:101780002DA73091BA053EA73090A7052090A80557
:101790004091A90527964FAF27975091AA05269605
:1017A0005FAF26978091A20589879091A3059FA797
:1017B000A091A405A8ABB091A505B9ABE091A60591
:1017C000EAABF091AF05FDAF2091B0052EAF30919F
:1017D000B1053FAF4091B20521964FAF21972BA5A0
:1017E0003CA54DA55EA56E8D7F8D88A199A10E9417
:1017F0009B37811159C352E05CAF9FA1998FA8A577
:10180000AA8FB9A5BB8FEAA5EC8F8EE3C82E83EC17
:10181000D82E8EE2E82E89E3F82E412C512C32018D
:10182000A70196012BA33CA34DA35EA3598551307C
:1018300009F4F7C3AD85BE85513008F46FC353304A
:1018400009F025C45A962D913D914D915C915D977B
:10185000C701B6010E94FD394B015C012D893E890B
:101860004F89588D632D722D27968FAD2797269619
:101870009FAD26970E94A5369B01AC01C501B4011E
:101880000E94BD3987FD1AC32E8D3F8D48A159A1F5
:101890006FA178A589A59AA50E94A5369B01AC01E8
:1018A0000E94A6366B017C012D893E894F89588D97
:1018B000632D722D27968FAD279726969FAD26977D
:1018C0000E94A6369B01AC01C701B6010E94A53754
:1018D0006B017C013D882E88BF892796BFAF279773
:1018E000E88D2696EFAF26970E8D1F8DF8A1F98310
:1018F00029A12D8331E03987A7019601C301B201E7
:101900000E94A6362B013C012BA13CA14DA15EA15A
:101910000E949B3787FF3CC4A30192016BA17CA16D
:101920008DA19EA10E94A5366B017C019801498181
:101930005D816FA578A989A99AA90E949B3787FD27
:10194000B6C2832D922D2796AFAD27972696BFADB1
:1019500026978093A7059093A805A093A905B09317
:10196000AA0539853093A20520919A0530919B05EF
:1019700040919C0550919D05B80189819D810E94EF
:10198000FD3969877A878B879C870E9484376B0132
:101990007C016091960570919705809198059091D2
:1019A00099050E9484374B015C01A70196010E94B2
:1019B000A5360E941E386D877E878F87988BA6E09C
:1019C00089899A89A89FF001A99FF00D1124EA5EE8
:1019D000FA4F2D853E8531832083232B09F008C4DF
:1019E0005CA9552309F404C48AA195C40E943D074B
:1019F0009093BC058093BB05F2CD809190058F5FDD
:101A0000853009F480E080939005482F50E091E103
:101A1000949FF001959FF00D1124E55CFA4FA98584
:101A2000BA8550969C915097908BE1E18E9FC001B2
:101A3000112430E020E0CD90DD90ED90FD90FC0190
:101A4000E20FF31FE55CFA4F63E0CC0CDD1CEE1CEB
:101A5000FF1C6A95D1F7C082D182E282F3822C5FAB
:101A60003F4F2C30310539F7A985BA851C966D9109
:101A70007D918D919C911F97B1E1B49F9001B59F8D
:101A8000300D1124F901E55CFA4F6B017C0123E074
:101A9000CC0CDD1CEE1CFF1C2A95D1F7C486D58624
:101AA000E686F7860E944D386093960570939705F9
:101AB0008093980590939905E985FA85268D378D51
:101AC00040A151A10E94A5379B01AC0120939A052A
:101AD00030939B0540939C0550939D0560E070E01A
:101AE00080EA9FE30E94A53760939E0570939F054F
:101AF0008093A0059093A1051092920510929305F2
:101B00001092940510929505FCA9F11102C013FFE3
:101B100020C06091AF057091B0058091B1059091A2
:101B2000B2056093A7057093A8058093A9059093CB
:101B3000AA059B01AC010E94FD39A985BA85529680
:101B40006D937D938D939C935597177F109391057B
:101B500055CDE985FA8562897389848995890E94C2
:101B60009C3A6093A7057093A8058093A90590936C
:101B7000AA0544CDC092A305D092A405E092A50584
:101B8000F092A6051092AF051092B0051092B10523
:101B90001092B20591CD1092A2054092B3055092D9
:101BA000B4056092B5057092B6053BA9332309F4DC
:101BB0006AC01092AF051092B0051092B105109254
:101BC000B205C12CD12C760189859A850E94CA065E
:101BD0006D877E878F87988B9B01AC010E94FD39B2
:101BE00069877A878B879C87A50194010E949B3720
:101BF00087FF8BC029853A854B855C85C501B4017B
:101C00000E94A5362D813E814F8158850E94FD3965
:101C10009B01AC01C301B2010E94A5366093B305DC
:101C20007093B4058093B5059093B60520E030E03D
:101C3000A9010E949B3718160CF441C0B2E0B09382
:101C4000A20529813A814B815C81CA01B9010E94B8
:101C5000A636A30192010E94FD399B01AC01C5018A
:101C6000B4010E94A5360E949C3A6093AF05709320
:101C7000B0058093B1059093B2058091910588607D
:101C80008093910519CD49AD5BADC12CD12C760166
:101C9000451741F02596AEADBFAD2597CD90DD90AF
:101CA000ED90FC90C701B6010E949C3A6093AF058D
:101CB0007093B0058093B1059093B20585CFA701CD
:101CC000960169857A858B859C850E94A5362D8134
:101CD0003E814F8158850E94FD396093B70570930E
:101CE000B8058093B9059093BA052D853E854F853B
:101CF00058892093AB053093AC054093AD055093C4
:101D0000AE0533E03093A205D7CCA7019601C501FB
:101D1000B4010E94A5362D813E814F8158850E94D5
:101D2000FD39A30192010E94A63620E030E040E098
:101D30005FE30E94FD39698B7A8B8B8B9C8B20E053
:101D400030E0A9010E94BD3918160CF094C0A3011F
:101D5000920169897A898B899C890E949B3787FFC8
:101D600088C0A701960169857A858B859C850E942C
:101D7000A5362D813E814F8158850E94FD399B01FA
:101D8000AC012093B7053093B8054093B905509343
:101D9000BA0569897A898B899C890E94BD39181690
:101DA000BCF58D859E85AF85B8898093AB059093F2
:101DB000AC05A093AD05B093AE05A501940169856E
:101DC0007A858B859C850E949B37811104C091E0A8
:101DD0009093A20571CCA501940169857A858B85C4
:101DE0009C850E94A5362D813E814F8158850E9499
:101DF000FD399B01AC01C301B2010E94A53660937D
:101E0000B3057093B4058093B5059093B60554CC93
:101E100029893A894B895C892093B3053093B405AD
:101E20004093B5055093B6052093B7053093B80598
:101E30004093B9055093BA0529813A814B815C8161
:101E4000CA01B9010E94A63629893A894B895C8961
:101E50000E94FD39A70196010E94A6360E949C3A75
:101E60006093AB057093AC058093AD059093AE0580
:101E700023CC32E047CF8091AF059091B005A0917F
:101E8000B105B091B2051092B3051092B40510924D
:101E9000B5051092B6058093AB059093AC05A09361
:101EA000AD05B093AE0508CC81E08CAFA6CC098F10
:101EB0001A8F39813B8F4D814C8FB8CC20E030E0B8
:101EC00040E05FE3C501B4010E94FD399B01AC0114
:101ED000632D722D27968FAD279726969FAD269757
:101EE0000E94A536A70196010E94FD399B01AC0115
:101EF000698D7A8D8B8D9C8D0E94A5368B0189838F
:101F00009D83A5019401632D722D27968FAD279790
:101F100026969FAD26970E94A5367AC05A962D9197
:101F20003D914D915C915D97C701B6010E94FD39CD
:101F30004B015C0120E030E040E05FE30E94FD39AE
:101F4000232D322D27964FAD279726965FAD2697E6
:101F50000E94A636A70196010E94FD399B01AC01A3
:101F6000698D7A8D8B8D9C8D0E94A5368B0189831E
:101F70009D839B01AC016E8D7F8D88A199A10E94EC
:101F8000BD391816CCF52E8D3F8D48A159A16FA1F2
:101F900078A589A59AA50E94A5369B01AC010E944F
:101FA000A6366B017C012D893E894F89588D632DA2
:101FB000722D27968FAD279726969FAD26970E9464
:101FC000A6369B01AC01C701B6010E94A5376B0183
:101FD0007C01BCADB9873D882E88EF892796EFAF8D
:101FE0002797F88D2696FFAF26970E8D1F8D28A177
:101FF000298339A13D8380CCA5019401632D722DE5
:1020000027968FAD279726969FAD26970E94A636D6
:10201000362E272E27968FAF279726969FAF269787
:102020006BCC2D893E894F89588DC701B6010E941E
:10203000FD399B01AC01698D7A8D8B8D9C8D0E9441
:10204000A5368B0189839D832BA53CA54DA55EA557
:102050000E949B3787FF50CC2BA53CA54DA55EA5C4
:10206000698D7A8D8B8D9C8D0E94A5362D893E8938
:102070004F89588D0E94A5376B017C010BA51CA5CB
:102080004DA549835EA55D8382E0898735CC5A964C
:102090002D913D914D915C915D97C701B6010E94D4
:1020A000FD394B015C01AC019B01632D722D27961C
:1020B0008FAD279726969FAD26970E94BD3918169B
:1020C00064F520E030E040E05FE3C501B4010E9428
:1020D000FD399B01AC01632D722D27968FAD27979B
:1020E00026969FAD26970E94A536A70196010E94CD
:1020F000FD399B01AC01698D7A8D8B8D9C8D0E9481
:10210000A5368B0189839D832FA538A949A95AA992
:102110000E94BD3918160CF4F4CE2FA538A949A990
:102120005AA9698D7A8D8B8D9C8D0E94A5369B0155
:10213000AC010E94A6366B017C012DAD3EAD4FADCA
:1021400021965FAD2197632D722D27968FAD27972E
:1021500026969FAD26970E94A6369B01AC01C7012B
:10216000B6010E94A5376B017C013DAC2EACBFAD22
:102170002796BFAF27972196EFAD21972696EFAF11
:1021800026970FA518A9F9A9F9832AA92D83B4CBFD
:102190002DA93EA94FA958ADB80189819D810E9402
:1021A000BD3918168CF42EE333EC4EE259E36BA1E3
:1021B0007CA18DA19EA10E94A6366BA37CA38DA3BA
:1021C0009EA3A3019201AECB832D922D2796AFAD96
:1021D00027972696BFAD26978093A7059093A805CD
:1021E000A093A905B093AA0549854093A205BCCB4D
:1021F0002091920530919305409194055091950559
:10220000C301B2010E94A6362B013C0129853A8503
:102210004B855C85C501B4010E94A5369B01AC01CC
:10222000C301B2010E94A5374B015C0120EC31EEE5
:1022300044E65EE40E94FD390E9484370E941E3805
:10224000603DA7E07A078105910508F081C046E06E
:1022500029893A89429FF001439FF00D1124EA5EDB
:10226000FA4F158246E029893A89429FF001439F3F
:10227000F00D1124EA5EFA4F738362838091150595
:1022800080933A058F5F863009F4BBC080931505B3
:10229000E091BB05F091BC05C801A981BD81868F85
:1022A000978FA0A3B1A3C0929605D0929705E09214
:1022B0009805F092990529853A854B855C85C7017B
:1022C000B6010E94A536A50194010E94FD396093D4
:1022D00092057093930580939405909395052091B2
:1022E000A3053091A4054091A5055091A605B8011C
:1022F00089819D810E949B37811157C920E030E080
:10230000A901B80189819D810E94BD3918160CF080
:102310007BC08091DF0581608093DF05CA5BDF4F62
:102320000FB6F894DEBF0FBECDBFDF91CF911F91E6
:102330000F91FF90EF90DF90CF90BF90AF909F9064
:102340008F907F906F905F904F903F902F90089567
:10235000603A5FE0750781059105A0F526E0A9893F
:10236000BA892A9FF0012B9FF00D1124EA5EFA4FE3
:1023700031E0358346E029893A89429FF001439F45
:10238000F00D1124EA5EFA4F2581022E04C09695C5
:102390008795779567950A94D2F7AD85BE8502C07B
:1023A000AA0FBB1F2A95E2F7B183A08361157105BF
:1023B000B1E08B07910508F455CF8FEF9FEF938322
:1023C00082835CCF60344FE174078105910560F42E
:1023D00026E0A989BA892A9FF0012B9FF00D1124CC
:1023E000EA5EFA4F32E0C5CFA6E049895A89A49F38
:1023F000F001A59FF00D1124EA5EFA4FB3E0B5831A
:10240000B9CF1092150544CF9BA99111EDCA109236
:10241000BC051092BB05A9ADBAADAB1709F4C5C890
:10242000ED8DE03109F41D8E80913102FAADF81383
:1024300003C02D8D209331023D8D30933202A0C810
:102440001BAEA7C880916F008D7F80936F00809135
:102450008100887F81608093810010920D028091BD
:102460001B069091DB058F3FA1F42091BE05211141
:1024700010C0903881F490E0019778F481E0909159
:102480002D0692FF02C091E08927882369F0289ADF
:102490000895943081F780E0F2CFEFE9FFE03197C3
:1024A000F1F700C00000E8CF28980895CF93DF939C
:1024B0000E942212E0E9F5E08BE2DF011D928A958D
:1024C000E9F7CEE0D2E083E2FE0111928A95E9F7C6
:1024D0001092BC051092BB051092140510923A059B
:1024E00081E08093150510920D020E9443038091B4
:1024F0000C028F878BB1837E90910B02892B8BB955
:102500008BB18F7190910C02892B8BB9DF91CF9198
:1025100008958091BD0584FD1BC080E10E944902A1
:102520002C9843989091DB05892F8C7221F480912F
:10253000DF05867069F0943049F48091BE05811101
:1025400003C086E00E9439020C94221283E0FACF85
:1025500008952F923F924F925F926F927F928F9247
:102560009F92AF92BF92CF92DF92EF92FF920F9322
:102570001F93CF93DF93CDB7DEB7A4970FB6F89430
:10258000DEBF0FBECDBF1091BE05112349F181E022
:102590008093DB0583E691E00E94CD04812F0E94A9
:1025A000A8040E94DB0485EF91E00197E1F511504A
:1025B000123088F486EC92E00E94CD0484EB92E025
:1025C0000E94CD040E94300680E10E943F0280916B
:1025D000BD0584FFFCCF8FB7F8941092BE058FBF66
:1025E0001091BD05112309F49AC214FF23C081E0A4
:1025F0008093DC05A4960FB6F894DEBF0FBECDBF66
:10260000DF91CF911F910F91FF90EF90DF90CF90CE
:10261000BF90AF909F908F907F906F905F904F9002
:102620003F902F900895EFE9FFE03197F1F700C058
:102630000000BBCF10FFBFC08CE0E2ECF5E0DE0194
:10264000599601900D928A95E1F7BE01675E7F4F22
:10265000CE010D960E948D028CE30E948E03809124
:10266000DB05883009F421C108F0FCC0813009F491
:1026700025C108F415C1823009F423C1843009F45E
:102680001AC180911C06F82FF1709F2E80FF2EC179
:102690008091E705882309F429C18EE891E00E9422
:1026A000CD04CE010D960E948F0480911C0681FFFF
:1026B0001DC082E891E00E94CD04909113058091A5
:1026C0003202981708F461C1815F891B0E94A80437
:1026D0008CE20E948E038091090290910A02981761
:1026E00008F455C18058891B0E94A8048EE791E028
:1026F0000E94CD048091DB058C7709F44AC160917A
:10270000A7057091A8058091A9059091AA050E943E
:1027100073040E941609E82E0E941203F82E06B1D7
:1027200000728091C10508278E2D8F29802B59F1C9
:1027300089E791E00E94CD04002319F080E50E9412
:102740008E03EE2079F0E0FE03C088E50E948E0340
:10275000E1FE03C089E50E948E03E2FE03C08AE524
:102760000E948E03FF2079F0F0FE03C082E50E94F4
:102770008E03F1FE03C088E40E948E03F2FE03C0C4
:1027800083E50E948E038091E705882309F405C143
:1027900081508093E7050091E605002309F416C1F6
:1027A00001500093E6058EE30E948E030E94DB0435
:1027B00081E00E943F02812F887E09F460C18091F0
:1027C000DB05982F937009F049C18872A9F08091B8
:1027D000DD05807C89F40E941F0382E08093DF0581
:1027E0008091DB05803241F480E217FD0CC08091BE
:1027F000DD0580688093DD058091DB05811103C0D4
:1028000091E09093DD0516FF07C085FD05C090910E
:10281000DD0590649093DD0513FF05C0807E19F4FB
:1028200080E18093DB0515FF19C186EC92E00E94E0
:10283000CD0482E792E00E94CD040E943006809190
:10284000DD0587FD06C19091DB05903409F0FEC0DF
:1028500083FF04C0837E82608093DD0580E48093E3
:10286000DB05F7C0803221F198F4803109F009CFFF
:102870008091DD0587FD1CC086EB91E00E94CD04B0
:102880008091DD0580FF2EC080E30E948E03F9CE8B
:102890008034D1F0803809F0F4CE85E991E002C0AF
:1028A00080EC91E00E94CD04ECCE8CEB91E0FACF6D
:1028B00082EB91E0F7CF8DEA91E0F4CF87EA91E0E7
:1028C000F1CF81EA91E0EECF8BE991E00E94CD0457
:1028D0008091DD0583FF02C083E3D7CF82FF04C070
:1028E00085FFD2CF81E3D1CF82E3CFCF409079066D
:1028F00050907A0660907B0670907C0661E6A62E6A
:1029000066E0B62E9E012F5F3F4F6901CE010D9606
:102910007C0100E0F50161917191819191915F01DC
:1029200020853185428553850E94A636F601619344
:102930007193819391936F01023041F4A30192014D
:102940000E94A63669877A878B879C87911012C070
:10295000F60134972081318142815381F7016081F2
:102960007181828193810E94A536F7016083718312
:10297000828393830F5FF4E0EF0EF11C033051F676
:1029800091108BCE87E891E08ACE81509ECE815007
:10299000AACE60E070E0CB01BACE8091DB058C77E7
:1029A00099F08DE18093E7058091E605811103C0E0
:1029B00081E08093E60583E791E00E94CD04CE019B
:1029C00001960E948F04E7CE89E0ECCF8091DB0571
:1029D0008C77A9F183E18093E6058EE691E00E9471
:1029E000CD048091E2050E94A8048CE20E948E032F
:1029F0008091E3050E94A8048CE20E948E038091DE
:102A0000E4050E94A8042C9B1CC02D9B1CC052E016
:102A1000F52E439BC7C100E48AE691E00E94CD04F5
:102A2000FF2031F021E083E5F21283E40E948E035F
:102A3000002309F4B8CE86E40E948E03B4CE89E068
:102A4000CACFF12CE6CFFF24F394E3CF903809F0FE
:102A500005CF8091DD0580628093DD0517FF0CC0F6
:102A60008091DB05813029F48091DD0585608093BC
:102A7000DD0580E88093DB0588EE0E943F0211FFB0
:102A800028C0812F887611F58091DB05803441F4D0
:102A90008091DD0585FD04C084FFE2C01092DB0556
:102AA0008091DB05882309F4E1C084FF0FC0909179
:102AB000DD0590FF0BC0803109F0D8C08091E5059D
:102AC000882309F4D3C088608093E50582E00E94E2
:102AD0003F0212FF24C09091DD058091DB05807DCF
:102AE00009F4DDC08091DE058111D9C097FDD9C000
:102AF0000E941F0380913202809331020E94550789
:102B00008091DF0581FF05C09091DD059160909374
:102B1000DD05897F8093DF0584E00E943F0290916C
:102B2000BF05992309F44CC08FB7F8941092BF05E4
:102B30008FBF4091E205842F90FD84E691FD865F72
:102B400092FD8A5093FD8F5F94FD8150893C08F07F
:102B500088EC8A3008F48AE03091E305232F95FD54
:102B600024E696FD22E397FD29E1481302C02317CE
:102B700039F18093E2052093E3051092E605709009
:102B8000320260901305172D89E9282E96E7392E19
:102B900026E9422E3EE7532E4EE2842E16119CC0AB
:102BA000C101D2018093190190931A01A0931B01D6
:102BB000B0931C010E941F03709231020E945507BE
:102BC0001091C005112309F443C08FB7F8941092F7
:102BD000C0058FBF9091E405892F10FD84E611FD9B
:102BE000865F12FD8A5013FD8F5F14FD8150893C72
:102BF00008F088EC8A3008F48AE0981761F0909128
:102C0000DB058093E4059111C1C0809146060E94C6
:102C100079031092E6058091DB0515FF09C080312C
:102C200039F49091E5059111B7C092E09093E505D4
:102C3000107C71F0882311F0887351F010914506D3
:102C400016FFAEC01F7B812F0E94040A1093450619
:102C50008091DB058C7F09F4CDCC0E948D0ACACC13
:102C600082FF1ECF88608093DD051ACF1092DF05AA
:102C70000E943D07892B71F08091DD0586FD0AC019
:102C80001092DD0588E08093DB050E948D0A0E948A
:102C900060031CCF1092DD051092DB0517CF97FF64
:102CA0000AC01092DF050E94100A0E9456120E946C
:102CB0004C090E945F068091DD0585FF08C08F7773
:102CC00081608093DD0580E48093DB0525CF109241
:102CD000DD051092DB0520CFA12EB12C189DC0017F
:102CE00011248D5C9D4F0E94CA06962EC72ED82EA9
:102CF000092F9101A2010E94BD398A9C70018B9C11
:102D0000F00C11241816ACF5C7018D5C9D4F7C01A9
:102D10009101A201B101C2010E94FD39F701668B48
:102D2000778B808F918F8A9CC0018B9C900D112492
:102D30009C012D5C3D4F7901F90122A033A044A0F4
:102D400055A0A201910166897789808D918D0E949D
:102D5000BD3918162CF4F701268A378A408E518E19
:102D60001F5F103109F410E0292C3C2C4D2C502E03
:102D700015CF97012D5C3D4F7901292D3C2D4D2D0F
:102D8000502F692D7C2D8D2D902FC6CF8091DF0582
:102D900088608093DF053DCF90FF4ACF946046CF97
:102DA000106451CFF11038CEFECC1F93CF93DF9338
:102DB000142F20E030E040EA51E40E94FD390E94E7
:102DC00084370E941E38EB012097C9F08091DC0502
:102DD000811115C011110DC00E9403172FEF80E75C
:102DE00092E0215080409040E1F700C00000219720
:102DF000EBCF0E94A9128091DD0581FFEFCFDF911B
:102E0000CF911F9108951F93CF93DF930E94A91232
:102E10008091DD05882309F453C00E943D07009787
:102E200071F58091460690914506892BD82FD07375
:102E300011E0C82FC07C8091DD05882309F440C0D3
:102E40009091DC0591113CC080FF16C09091DB058C
:102E5000292F207C09F47BC082FD1AC01092E50561
:102E600080E00E94790380E00E94040A8091DD05E1
:102E70008D7F84608093DD050E94A912DCCFFC0168
:102E800091899073439902C080E0CFCF80E4CDCF89
:102E90009038E9F486EC92E00E94CD048FE292E053
:102EA0000E94CD040E94300680E00E94790380E0F9
:102EB0000E94040A0E9422128091DC05882321F0DE
:102EC000DF91CF911F9108950E94A912F5CF903400
:102ED00019F48F7D8093DD058091DD0583FFCCCFD4
:102EE00090914606992359F081FD09C080912D06E5
:102EF00081FF22C08091DF0588608093DF0580918B
:102F00004506882371F08091DD0581FD0AC08C2F74
:102F10000E94040A41E060E070E080E89FE30E94C4
:102F2000D5168091DD0581FDA7CF80618093DD05F9
:102F300082E00E944902A0CF8D2F0E94790341E0D8
:102F400060E070E080E890E40E94D516D8CF8091D0
:102F5000E5058823A1F181FF0AC0809146068823F8
:102F600039F180E00E9479031093E50585CF8C70DC
:102F700009F482CF80914606882399F086EC92E08E
:102F80000E94CD0488E392E00E94CD040E943006A6
:102F900080912D0681FF0FC08091DF0588608093AE
:102FA000DF058091E50583FF03C082E00E944902AE
:102FB0001092E50561CF8D2F0E947903F2CF8091A9
:102FC000DF0583FF59CF8D2F0E9479038091DF05A4
:102FD000877F8093DF0550CF0E944D070E94031723
:102FE0008091DC05811108C00E943D07892BB1F753
:102FF0008091DB05883091F30895CF93DF9391E5BD
:10300000899FE0011124DD5F40E550E0BE0187EBC0
:1030100096E00E94C209892B79F41092B7060E94AB
:10302000EC1740E550E067EB76E0CE010E947209B4
:1030300080E0DF91CF91089581E0FBCF0E94EC17F3
:103040001092E7050895CF939091DB05923039F007
:10305000C82F0E94EC178C2FCF910C947903CF913D
:1030600008950F931F93CF93C82F8B010E94EC17E5
:103070002DE0C29FC00111244CE050E0B8019E5FDA
:10308000CF911F910F910C9472091F93CF93DF93EF
:10309000182FEB018DE0189FB00111247E5F4CE0EA
:1030A00050E0CE010E94C209892B71F48CE0FE0130
:1030B00011928A95E9F7BE01812F0E94311880E0B4
:1030C000DF91CF911F91089581E0FACFEF92FF92A7
:1030D0000F931F93CF93DF93CDB7DEB72C970FB627
:1030E000F894DEBF0FBECDBF182F80FF0BC085E563
:1030F000E5EDF1E0A8EEB5E005900D928A95E1F7D7
:103100000E94AD0911FF10C0CE0101967C018CE038
:10311000F70111928A95E9F700E0B701802F0E942C
:1031200031180F5F0830C9F712FF14C060E080E06B
:1031300093E00E94520960E081E093E00E9452090E
:1031400060E081E593E00E94520960E082E593E04F
:103150000E94520913FF0AC060E08EEA93E00E94C9
:10316000520960E08FEA93E00E9452092C960FB654
:10317000F894DEBF0FBECDBFDF91CF911F910F91AD
:10318000FF90EF9008952F923F924F925F926F922F
:103190007F928F929F92AF92BF92CF92DF92EF92E7
:1031A000FF920F931F93CF93DF93CDB7DEB7CA542F
:1031B000D1090FB6F894DEBF0FBECDBF98A38F8F95
:1031C0007CAF6BAF409013054D8E242C312C8EE2DA
:1031D000489E90011124A9014D5C5D4F5EA34DA353
:1031E000DA011D928A95E9F7FB018085DA01519693
:1031F0008C9381FF66C2C090C205D090C305E09059
:10320000C405F090C5054090C6055090C705609074
:10321000C8057090C905498E5A8E6B8E7C8EC3018D
:10322000B2016C0D7D1D8E1D9F1D22E0822E912C02
:10323000A12CB12CA50194010E94483B29013A011F
:10324000C701B601298D3A8D4B8D5C8D621B730BC6
:10325000840B950BA50194010E94483B69017A01FA
:103260008090CA059090CB05A090CC05B090CD057C
:103270004091E8055091E9056091EA057091EB05F0
:1032800049A35AA36BA37CA3AF8DB8A12D913D9107
:103290004D915C9169A17AA18BA19CA10E94FD39FD
:1032A0000E94CA3921966CAF7DAF8EAF9FAF219738
:1032B0002091EC053091ED054091EE055091EF0520
:1032C0002BA73CA74DA75EA7AF8DB8A114962D9153
:1032D0003D914D915C9117976BA57CA58DA59EA501
:1032E0000E94FD390E94CA396FA378A789A79AA7BF
:1032F00021968CAD9DADAEADBFAD219784199509DA
:10330000A609B7090FA118A529A53AA50C191D09E9
:103310002E093F094EE2429DF001439DF00D11241C
:10332000ED5CFD4FAC01BD01400F511F621F731FCB
:1033300077FF07C070956095509541955F4F6F4F2F
:103340007F4F40835183628373834EE2429DF0013D
:10335000439DF00D1124ED5CFD4FAC01BD01401B00
:10336000510B620B730B77FF07C0709560955095FA
:1033700041955F4F6F4F7F4F4483558366837783BB
:103380004090F0055090F1056090F2057090F305C3
:103390004FAA58AE69AE7AAE6DA07EA07EAA6DAA85
:1033A0009E01235F3F4F3A8F298F3CAB2BAB10E040
:1033B0004EE2429D9001439D300D11242D5C3D4F06
:1033C000A901445F5F4F23965FAF4EAF2397AC01D7
:1033D000BD014FA058A469A47AA4441955096609EF
:1033E00077092A013B014C0C5D1C6E1C7F1C299641
:1033F0004CAE5DAE6EAE7FAE29974FA058A469A4C7
:103400007AA4840D951DA61DB71D2C013D014C18F5
:103410005D086E087F08A901405F5F4F25965FAF8A
:103420004EAF2597B901685F7F4F2B967FAF6EAF88
:103430002B97EDA9FEA981919191A191B191FEAB3C
:10344000EDAB2396EEADFFAD2397C080D180E28037
:10345000F380C816D906EA06FB0610F46C017D015C
:103460002396AEADBFAD2397CD92DD92ED92FC9247
:10347000139711116EC1C301B2010E944F3829A1E7
:103480003AA14BA15CA10E94A537EBA9FCA96193CD
:10349000719381939193FCABEBAB20E030E0A901F9
:1034A0000E949B3787FF0EC090E2112321F090E429
:1034B000113009F090E82596AEADBFAD25978C91FF
:1034C000892B8C931F5F133009F014C180E0CD2845
:1034D000CE28CF2809F4DBC0CE010D960E94210A28
:1034E0004B015C018EE2829D8001839D100D1124B1
:1034F0000D5C1D4FF801868E978EA0A2B1A2BE0171
:10350000635F7F4F80E096E00E94C008D8015A9622
:103510006D937D938D939C935D97BE01635F7F4F09
:1035200084EF95E00E94C008F80166A377A380A706
:1035300091A7F188F0FE2BC162A773A784A795A776
:10354000809132024D8C481611F0F1FE3AC18EE2A4
:10355000829DF001839DF00D1124ED5CFD4F128AD8
:10356000138A148A158A12A213A214A215A28EE23B
:10357000829D8001839D100D11240D5C1D4FD8018B
:1035800051968C9181FD82C08DA19EA10E94CA0698
:103590006B017C014090190150901A0160901B0151
:1035A00070901C01AC019B01C301B2010E949B37CA
:1035B00087FFCFC1A3019201C301B2010E94FD396F
:1035C000F801668B778B808F918F8EE2829D8001D0
:1035D000839D100D11240D5C1D4FF80142A053A0D6
:1035E00064A075A0A301920166897789808D918D71
:1035F0000E94BD3918163CF4D80156964D925D9242
:103600006D927C925997C0921901D0921A01E09262
:103610001B01F0921C018CE0FE013D96ADE0B1E093
:1036200001900D928A95E1F721964CAC5DAC6EACA1
:103630007FAC2197409201015092020160920301F8
:10364000709204014FA058A469A47AA44092050185
:103650005092060160920701709208014FA458A889
:1036600069A87AA84092090150920A0160920B0160
:1036700070920C0180910001809313058F5F80315F
:1036800009F480E0809300010E94550781E0C65B49
:10369000DF4F0FB6F894DEBF0FBECDBFDF91CF91E5
:1036A0001F910F91FF90EF90DF90CF90BF90AF9060
:1036B0009F908F907F906F905F904F903F902F9052
:1036C00008954090010150900201609003017090B4
:1036D0000401C0900501D0900601E0900701F09030
:1036E00008018090090190900A01A0900B01B09010
:1036F0000C01BECD123009F09CCEAF8DB8A118964A
:103700002D913D914D915C911B976FA978AD89AD3D
:103710009AAD0E94FD390E94CA396FA778AB89AB78
:103720009AABDC01CB0188199909AA09BB09B7FF3B
:1037300007C0B095A095909581959F4FAF4FBF4F13
:103740002B96EEADFFAD2B9780839183A283B3833D
:1037500070CE113069F429966CAD7DAD8EAD9FAD04
:1037600029970E944F382BA53CA54DA55EA58BCE71
:103770006FA578A989A99AA9681979098A099B0965
:103780000E944F382FA938AD49AD5AAD7CCEEBAD74
:10379000FCAD2081318142815381F3FC08C0D80106
:1037A0009A962D933D934D935C939D97C9CEC501F9
:1037B000B4010E94FD39F80162A773A784A795A7F9
:1037C000BFCE2DE031E03E8F2D8F8E010F5F1F4F5A
:1037D000498D5A8D445F5F4F5CA74BA7C12CD12CFC
:1037E00076010F8F19A3AD8DBE8D8D909D90AD90FC
:1037F000BD90BE8FAD8FE98DFA8D41905190619053
:103800007190FA8FE98FA3019201C501B4010E9462
:10381000FD399B01AC01C701B6010E94A5366B01C1
:103820007C01A5019401C301B2010E94A536D80113
:103830006D937D938D939D938D014BA45CA4698CB6
:103840007A8C4614570479F62FEE3FEF4FE75FE38B
:10385000C701B6010E94BD3918164CF48EE2829D54
:10386000F001839DF00D1124ED5CFD4F7CCE2FEE19
:103870003FEF4FE75FEBC701B6010E949B3787FF21
:1038800011C08EE2829DF001839DF00D1124ED5C4C
:10389000FD4F89E996E7A6E9BEE782A393A3A4A317
:1038A000B5A365CE8F8D99A10E94210A6F8D79A154
:1038B00080E096E00E94C0082B013C01A701960120
:1038C00060E070E080E89FE30E94A53620E030E0F1
:1038D00040E05FE30E94FD390E949C3A6B017C014D
:1038E00020911D0630911E0640911F065091200622
:1038F000C301B2010E94FD39A70196010E94FD3962
:103900004B015C01A701960160E070E080E89FE355
:103910000E94A5369B01AC01C501B4010E94A537E8
:103920006B017C0120E030E0A9010E949B3787FFFA
:1039300003C0C12CD12C76018EE2829DF001839DC3
:10394000F00D1124ED5CFD4FC2A2D3A2E4A2F5A2BA
:103950000ECEA7019601C701B6010E94FD39D8011C
:1039600056966D937D938D939C9359972ECEFF928F
:103970000F931F93CF93DF938C01EB0180912D0662
:1039800085FF23C0F090DB0580E2F81611F1C80135
:103990000E9452028823C9F081E08093DE0588E00E
:1039A000F8120CC00E9449020E9403178091DC05A6
:1039B00081110BC08091DB058111F6CF0E94891225
:1039C00082E00E9439020E9403178091DB05823059
:1039D00021F10E9403178091DC0581111EC0909196
:1039E000320280910001981303C00E944D07F1CF6D
:1039F000BE01C8010E94C31881110FC080912D061D
:103A000081FF0BC0888584FF08C080E1DF91CF91E2
:103A10001F910F91FF900C942318DF91CF911F916C
:103A20000F91FF9008952F923F924F925F926F9265
:103A30007F928F929F92AF92BF92CF92DF92EF923E
:103A4000FF920F931F93CF93DF93CDB7DEB7CC5484
:103A5000D1090FB6F894DEBF0FBECDBFEDE7F6E09B
:103A60008AE3DF011D928A95E9F78BE0EDE3F6E04A
:103A7000AEE7B6E001900D928A95E1F78091B70626
:103A80008432A1F01A8E1BA2312C212C1EA61DA659
:103A900010E01B8E1F8EEE24E394F12CAAE0AA2ED8
:103AA000B12CB1E68B2EB3E09B2E4EC181E080930A
:103AB0007E0610927F0683E08A8FB1E0BBA3E4CF3D
:103AC0009FEB9D0D9A3110F00C948A2A8F5F8A8F9C
:103AD000BE016A5E7F4FCE014A960E947A0188231A
:103AE00011F40C948D2A4E885F88688C798CC30100
:103AF000B2010E94E03A0E941E38062F70E090E06A
:103B000080E00E944F389B01AC01C301B2010E94CA
:103B1000A53620E030E048EC52E40E94FD390E94D6
:103B20006A3A0E941E38CB01E7E4DE1629F1FDE473
:103B3000DF1609F465C1EAEBED0DE53108F02CC0A4
:103B40000E2E000CFF0BE955F24E0C94673B491FFB
:103B5000CC1DCC1D761F811F8C1F971FCC1D9B1F5A
:103B6000CC1DA91FCC1DB31FBD1FC71FCC1DCC1D55
:103B7000CC1DD71FE41FF11F083209F4DDC030F55A
:103B8000043160F4013108F098C0043009F474C0C5
:103B9000B0F00A3009F468C084E196C00C3109F431
:103BA00063C040F40631C0F725E1201B2093800656
:103BB00026E087C00E3109F457C0063269F74F8DF1
:103BC00041110C94902AA2E0AF8F28C00D3309F464
:103BD000AEC0E0F4053309F44FC088F40B3211F0A5
:103BE0000133D1F6BF8DB1110C94902A013309F045
:103BF00095C010928306E3E0EF8F28E04FC00C33AE
:103C000058F606530093840629E05BC00C3508F58E
:103C10000A3508F073C0003509F0BECF00937E0668
:103C200021E0063209F04DC08431910551F08E310A
:103C3000910539F08832910521F08233910509F020
:103C4000ABCFB5010E94123B665760937E0621E020
:103C500025C00C3549F00F3508F09ECF2EE5201B0E
:103C600020937F0625E02DC0009731F42F8D211180
:103C70000C94902A31E03F8F00937D06202F2D7FFA
:103C80002C3119F020E00C35E1F4009719F00A9777
:103C900009F082CF600F60937D0620E0C70102C06B
:103CA000880F991F2A95E2F72DA53EA528233923D1
:103CB000232B09F443C085E107C00151009382061C
:103CC00022E0892B59F387E1C45BDF4F0FB6F894EC
:103CD000DEBF0FBECDBFDF91CF911F910F91FF903F
:103CE000EF90DF90CF90BF90AF909F908F907F909C
:103CF0006F905F904F903F902F900895892B29F4FB
:103D00000A550093810623E0C9CF6A30710509F096
:103D100043CF0A3509F440CF24E0C0CF0A9709F019
:103D20003BCFF1E0F093830623E02F8F66CF892B02
:103D300009F032CF2AE0B2CF27E0C3CFADA5BEA5B0
:103D4000A82BB92BBEA7ADA78A8DE82FF0E0E954C8
:103D5000F94FD080D110B4CEBB8DBB2329F0EF8DAD
:103D6000E11102C0F2E0FF8F25FE0FC080919A069C
:103D700090919B06A0919C06B0919D068138964932
:103D8000A849B10514F00C949C2A3BA1332309F4F3
:103D900035C120FE45C1809180068130B1F423E316
:103DA00033E34BEC51E46091890670918A0680916F
:103DB0008B0690918C060E94FD3960938906709362
:103DC0008A0680938B0690938C0630FC10C08091FD
:103DD000480690914906A0914A06B0914B068093FF
:103DE000A6069093A706A093A806B093A906809173
:103DF0007D06843009F02FC126FC2BC18CE164CFF5
:103E0000892B09F060CF063050F4033098F004306D
:103E1000D9F080E10530C9F41092870618C0083047
:103E200008F4BACE0A3048F10E3109F0B5CE00934D
:103E3000850604C0002321F00130C9F78BE008C0DB
:103E4000B3E0B0938506FACF80E2809387068CE0DA
:103E5000F70102C0EE0FFF1F8A95E2F7CF012DA5F3
:103E60003EA52E233923232B09F025CF2DA53EA5D2
:103E70002E2B392B3EA72DA767CF093039F0809123
:103E800086068064809386068DE0E2CF10928606D7
:103E9000FBCF4092890650928A0660928B06709200
:103EA0008C0680E06701082E02C0CC0CDD1C0A9451
:103EB000E2F7960122213321232B11F00C94962A4C
:103EC000D40102C0B595A7958A95E2F7A0FF0BC073
:103ED00020E030E0A901C301B2010E949B3787FFB7
:103EE00002C00C94992A2C283D282ECF40928D0692
:103EF00050928E0660928F0670929006116081E05B
:103F0000D1CF4092910650929206609293067092A1
:103F10009406126082E0C6CF4092950650929606B3
:103F20006092970670929806146083E0BBCF00936E
:103F3000990684E0B7CFC301B2010E94173860939D
:103F40009A0670939B0680939C0690939D0685E04D
:103F5000A9CF40929E0650929F066092A006709252
:103F6000A10686E09FCF4092A2065092A3066092DF
:103F7000A4067092A50687E095CF4092A6065092BF
:103F8000A7066092A8067092A90688E08BCF20E071
:103F900030E04FE753E4C301B2010E94BD39181667
:103FA00014F40C94932A0093AA0689E07BCF4092E4
:103FB000AB065092AC066092AD067092AE063B8D99
:103FC00031603B8F8AE06ECF4092AF065092B006D0
:103FD0006092B1067092B2064B8D42604B8F8BE0BF
:103FE00061CF4092B3065092B4066092B5067092CB
:103FF000B6068B8D84608B8F8CE054CF80917F06CA
:10400000813081F44F8D423009F0DFCE80917E0601
:10401000803509F4DACE882309F4D7CE20FCD5CE3A
:1040200086E152CE80913E068111CFCE20FCB3CEE8
:1040300080914C0690914D06A0914E06B0914F068E
:104040008093890690938A06A0938B06B0938C0682
:10405000BCCEE89426F880918206882359F08130FE
:1040600009F4BBC022961FAE2297A2E0ABAFB1E02D
:10407000B9AF07C082E022968FAF229791E09BAF45
:1040800019AE80918006813071F5EDE7CE2EE6E025
:10409000DE2EF12CE12C2B8DA22EB12CC5010E2C85
:1040A00002C0959587950A94E2F780FF12C023E33A
:1040B00033E34BEC51E4D6019E966D917D918D9149
:1040C0009C91D1970E94FD39F60166A777A780AB36
:1040D00091ABFFEFEF1AFF0A24E0C20ED11C33E0D0
:1040E000E316F104D9F64F8D433049F480918306ED
:1040F000813029F48B8D843011F00C949F2A8CE050
:10410000E1E6F6E0DE01119601900D928A95E1F765
:10411000ADA5BEA5B1FD69C000917D060A3009F4C8
:1041200078C00C3509F419C19F8D933009F43FC054
:10413000AB8DAA23E1F1B0918106BFA380917906EE
:1041400090917A06A0917B06B0917C0689A79AA7E8
:10415000ABA7BCA79DE3A92E96E0B92E2DE7C22EF2
:1041600026E0D22EF12CE12C9B8D892E912CC401BE
:104170000E2C02C0959587950A94E2F780FD5DC1EB
:10418000F501808D918DA28DB38DF60186A797A73D
:10419000A0ABB1ABFFEFEF1AFF0A24E0A20EB11CF7
:1041A00034E0C30ED11C43E0E416F10401F70E31F4
:1041B00009F494C1053309F4B8C16DE876E086E0EE
:1041C0000C3109F02DC10E944518882301F18B8D17
:1041D000811188C119A61F8EA9C0E1E02296EFAF18
:1041E00022971BAEF2E0F9AF4CCF80918406873066
:1041F00010F08DE169CD90914306891709F48CCFB9
:10420000BE016F5F7F4F0E944518811185CF87E007
:104210005BCDBB8DB11102C08AE156CDC101807565
:104220009927892B09F4EACD60919E0670919F062B
:104230008091A0069091A1060E94E03A0E941E384B
:104240006730B8F680919906843129F0823009F000
:10425000A3CC27FCA1CC662309F474C0615069A7E4
:104260006DE876E089A50E944518882381F20091C7
:1042700099064090790650907A0660907B0670907F
:104280007C067DE7C72E76E0D72EF12CE12C3B8D06
:10429000232F30E038A72FA38FA198A50E2C02C0A2
:1042A000959587950A94E2F780FF33C0D6019E96D4
:1042B0008D909D90AD90BC90D197043109F046C08F
:1042C000F701EE0FFF1FEE0FFF1FE35CF94F20A970
:1042D00031A942A953A9608D718D828D938D0E9461
:1042E000A536A50194010E94A536F601608B718B5D
:1042F000828B938BF2E0EF120CC0A30192010E941B
:10430000A5366093950670939606809397069093D2
:104310009806BFEFEB1AFB0AE4E0CE0ED11CF3E0E7
:10432000EF16F10409F0B8CF2FEA222280917E0621
:104330008FA3803509F000C19B8D992309F406C134
:104340008FE1C2CCE0918406E9A78ACF50968D9286
:104350009D92AD92BC925397DCCF3B8D332309F4F1
:104360005BCF4090790650907A0660907B06709003
:104370007C064DE3842E46E0942ECE0101967C010E
:104380005DE7A52E56E0B52ED12CC12CA32FB0E0B1
:10439000B8A7AFA38FA198A50C2C02C095958795BF
:1043A0000A94E2F780FF3EC0F7012081318142810B
:1043B0005381D40158966D917D918D919C915B971D
:1043C0000E94A536F50126A537A540A951A90E944E
:1043D000A536D5019E966D937D938D939C93D19731
:1043E000B2E0CB120CC0A30192010E94A5366093EB
:1043F000B3067093B4068093B5069093B606FFEFAC
:10440000CF1ADF0A24E0820E911C34E0E30EF11C87
:1044100044E0A40EB11C83E0C816D10409F0BACF61
:1044200019A684CFF40180A991A9A2A9B3A9F50185
:1044300086A797A7A0ABB1ABE2CF053309F4AACE0C
:10444000D6019E964D905D906D907C90D197BFA1C6
:10445000B11133C0F701EE0FFF1FEE0FFF1F21E078
:1044600030E02C0F3D1FE20FF31FD501D0962D91A8
:104470003D914D915C91D39760817181828193814F
:104480000E94A636A30192010E94A636F60166A7F5
:1044900077A780AB91ABF2E0EF127CCE29A53AA5CD
:1044A0004BA55CA50E94A6366093B3067093B40634
:1044B0008093B5069093B6066DCEA3019201D50107
:1044C00058966D917D918D919C915B970E94A63637
:1044D000F60166A777A780AB91AB5CCE6DE876E07E
:1044E00087E071CEADE3B6E0EDE7F6E090E080E086
:1044F0004B8D242F30E0A901082E02C05595479519
:104500000A94E2F740FD0AC058964D915D916D9175
:104510007C915B97408B518B628B738B01961496C9
:1045200034968330910539F77BCF80917E068230B7
:1045300008F476CF8EE1C8CBAF8DA23039F4BFA19D
:10454000B11171C0EB8DEE2309F48BC02BA121704A
:10455000EBA1C101E0FFD6C28E7DFF8DF111937EEC
:10456000892B11F00C94A82A8E01035F1F4F89E05C
:10457000D8011D928A95E9F7222309F4C6C28DA5B8
:104580009EA5867B892B09F0E6C780917D06853341
:1045900011F08111E0C78091480690914906A091E1
:1045A0004A06B0914B06898B9A8BAB8BBC8B809162
:1045B000460690914506892B4091890650918A06BE
:1045C00060918B0670918C064D875E876F87788B24
:1045D00084608D8B80912D0685FF06C08BEA96E066
:1045E0000E9452028111BAC7B8018BEA96E00E947C
:1045F000B71C8091DB0581110BC00E943D07892B00
:1046000039F080E28093DB050E948D0A0E946003EE
:104610008CE0EBEAF6E0A5E5B6E001900D928A9514
:10462000E1F780E051CB20E030E0A90160918906FC
:1046300070918A0680918B0690918C060E949B3720
:10464000882309F4EDCCFFA1FC38B9F060F4F23016
:1046500059F1F33061F1F13009F078CF3B8D311130
:1046600075CF1F8E73CF2FA12E3839F018F02F3849
:1046700009F06CCF9BA190619BA38FA18E588230D3
:1046800018F4ABA1A860ABA3BB8DBB2309F4C4CDC8
:104690004CE050E06BEA76E085E596E00E94873BCF
:1046A000892B09F053CF6DC04BA144604BA38B8D78
:1046B000882309F4B1CDB9ADAB2FB0E0BAABA9AB4B
:1046C000FBADEF2FF0E0FEABEDAB81E090E07C01C5
:1046D00009AC02C0EE0CFF1C0A94E2F70BAC02C05E
:1046E000880F991F0A94E2F7E82AF92A2B8D822F66
:1046F00090E08E219F21892B09F424C7FD01EE0F44
:10470000FF1FEE0FFF1FE358F94FAA0FBB1FAA0FA1
:10471000BB1FAB5AB94F2D913D914D915C9166A550
:1047200077A580A991A90E94A5362B013C01EDA98E
:10473000FEA9EE0FFF1FEE0FFF1FE358F94FADA9C3
:10474000BEA9AA0FBB1FAA0FBB1FAB5AB94F2D9111
:104750003D914D915C9166A577A580A991A90E9494
:10476000A5364B015C0127FEFFC0E89427F84CE01A
:1047700050E06BEA76E085E596E00E94873B892B66
:1047800011F481E2A1CA6091A2067091A306809102
:10479000A4069091A50620918006213071F423E3B0
:1047A00033E34BEC51E40E94FD396093A206709311
:1047B000A3068093A4069093A5068091A2069091EB
:1047C000A306A091A406B091A50621968CAF9DAF3B
:1047D000AEAFBFAF2197A3019201C301B2010E9406
:1047E000FD3929966CAF7DAF8EAF9FAF2997A5019C
:1047F0009401C501B4010E94FD392D966CAF7DAFC7
:104800008EAF9FAF2D9720E030E040E850E4219636
:104810006CAD7DAD8EAD9FAD21970E94FD39219687
:104820002CAD3DAD4EAD5FAD21970E94FD3929966F
:104830002CAD3DAD4EAD5FAD29970E94A5362D96AE
:104840002CAD3DAD4EAD5FAD2D970E94A5366B01F1
:104850007C0120E030E0A9010E949B3787FD75C6EE
:10486000C701B6010E949C3A6B017C012D962CADCC
:104870003DAD4EAD5FAD2D9729966CAD7DAD8EAD46
:104880009FAD29970E94A6360E949C3A9B01AC01DD
:10489000C701B60190580E94A5376B017C019FA10A
:1048A000933021F4F7FAF094F7F8F09420E030E038
:1048B000A90121966CAD7DAD8EAD9FAD21970E9473
:1048C0009B3787FF13C0F7FAF094F7F8F09421961E
:1048D0008CAD9DADAEADBFAD2197B0588093A20613
:1048E0009093A306A093A406B093A50609A91AA9BC
:1048F000000F111F000F111F0357194FA701960139
:10490000C501B4010E94FD399B01AC01C301B20194
:104910000E94A53620E030E040E05FE30E94FD39D0
:10492000D8016D937D938D939C9313970DA91EA928
:10493000000F111F000F111F0357194FA7019601F8
:10494000C301B2010E94FD39A50194010E94A6365F
:1049500020E030E040E05FE30E94FD39F801608331
:10496000718382839383F2CDC12ED12CE122FD206D
:1049700083E2EF2809F4A8C9F1EF2F228091800685
:10498000813041F50DE716E0F12CE12CC6010E2C2B
:1049900002C0959587950A94E2F780FF12C023E341
:1049A00033E34BEC51E4D80150966D917D918D919C
:1049B0009C9153970E94FD39F801608B718B828B1B
:1049C000938BFFEFEF1AFF0A0C5F1F4F23E0E216F5
:1049D000F104E1F6E9A9FAA9EE0FFF1FEE0FFF1FA0
:1049E000E357F94FC080D180E280F380A7019601A0
:1049F000C301B2010E94A5362B013C01EDA9FEA91D
:104A0000EE0FFF1FEE0FFF1FE357F94F80819181DB
:104A1000A281B38189AB9AABABABBCAB9C01AD01BE
:104A2000C501B4010E94A5364B015C01A3019201AE
:104A3000C301B2010E94FD392B013C01A501940183
:104A4000C501B4010E94FD399B01AC01C301B20153
:104A50000E94A6360E949C3A4B015C01A701960178
:104A6000C701B6010E94FD396B017C0129A93AA951
:104A70004BA95CA9CA01B9010E94FD399B01AC0197
:104A8000C701B6010E94A6360E949C3A6B017C01C8
:104A9000C092A206D092A306E092A406F092A506C8
:104AA000AC019B01C501B4010E94A5364B015C011C
:104AB000E894B7F82AE037ED43EA5BE3C501B401B7
:104AC0000E94BD3918160CF041CD20E030E040E0E6
:104AD0005FE3C501B4010E94BD3918160CF451CE34
:104AE0002FE632E143E85AE3C701B6010E94FD39DF
:104AF0009B01AC01C501B4010E94BD3918160CF030
:104B000025CD3FCE8E7D9C7F28CD80912D06F090C7
:104B1000460681FF12C08FA18150833018F0BBA1DF
:104B2000B064BBA3EB8DEE2309F431C1FF8DF230ED
:104B300009F02DC12BA120682BA380919A0690919A
:104B40009B06A0919C06B0919D0680935106909380
:104B50005206A0935306B093540680917F0680932B
:104B60003E06882311F088E08D8B80918906909114
:104B70008A06A0918B06B0918C0680934C06909388
:104B80004D06A0934E06B0934F068D879E87AF8744
:104B9000B88B2091A6063091A7064091A8065091A7
:104BA000A906609148067091490680914A06909145
:104BB0004B060E949B37811103C09BA195FF15C036
:104BC000FF2019F08F2D0E9423188091A606909146
:104BD000A706A091A806B091A906809348069093D5
:104BE0004906A0934A06B0934B06ABA1A6FD0CC0A4
:104BF0008091480690914906A0914A06B0914B06D3
:104C0000898B9A8BAB8BBC8B8091AA0680935006C4
:104C10008091870690914606981731F00E942318DC
:104C200080918706809346068D8990914606892B50
:104C30008D8BF0908606809145068F1569F08091E6
:104C4000DB05823029F00E94EC178F2D0E94040AA8
:104C500080918606809345068D8990914506892B23
:104C60008D8B80917D06843099F48091DB058230B4
:104C700079F0C0909E06D0909F06E090A006F0903C
:104C8000A1060E94EC1740E0C701B6010E94D516AC
:104C900080918206809341068091800680933F0632
:104CA000BF8DB33071F580918306809342068111E8
:104CB00008C01092B3061092B4061092B506109276
:104CC000B606C090B306D090B406E090B506F0905A
:104CD000B606A70196016091790670917A068091D7
:104CE0007B0690917C060E949B37882351F0C092EE
:104CF0007906D0927A06E0927B06F0927C060E94BA
:104D00001E188091840690914306981769F080934D
:104D100043068CE0FE013196A1E6B6E001900D92CB
:104D20008A95E1F70E941E188091810680934006C3
:104D300080917D06863209F47EC008F03FC08C3138
:104D400009F45FC08E3109F45CC08A3009F443C0B5
:104D500080917E0680933D06803509F449C3BF8D5E
:104D6000B23009F045C3813009F079C0BE01635FFC
:104D70007F4F8BEA96E00E94B71C8CE0EBEAF6E0EE
:104D8000A5E5B6E001900D928A95E1F731C330E1D7
:104D9000F312D3CE9BA1907480913D068150833055
:104DA00038F4992309F4C9CE4BA140624BA3C5CE78
:104DB0009111C3CE8BA180628BA3BFCE8C3509F439
:104DC00040C0863609F443C0883209F0C1CF65E59A
:104DD00076E087E033C06DE876E089A50E9431185F
:104DE00080914306E9A5E813B3CF8CE0EDE8F6E047
:104DF000A1E6B6E001900D928A95E1F70E941E1897
:104E0000A7CF8D8981608D8BFF8DFF2329F0B8019D
:104E10008BEA96E00E94B71CB8018DE896E00E94EC
:104E2000B71C8CE0EDE8F6E0A5E5B6E001900D9248
:104E30008A95E1F78DCF65E576E086E00E9431182E
:104E400087CF8CE0EBEAF6E0ADE6B6E0D3CFEDE657
:104E5000F6E08CE0DF011D928A95E9F7CFCF811152
:104E600005C08D8981608D8BB80183CF82508230DF
:104E700008F097C28091A2069091A306A091A40683
:104E8000B091A5068F8F98A3A9A3BAA3A9AD94E06A
:104E9000A99F70011124F701EB5AF94FF8A7EFA36E
:104EA00097012357394F3AA729A7D9014D905D9013
:104EB0006D907C902081318142815381C301B20188
:104EC0000E94A6366DA77EA78FA798ABEBADB4E086
:104ED000EB9F8001112498012B5A394F3AAF29AF2B
:104EE000C8018357994F9CAF8BAFDC018D909D908B
:104EF000AD90BC90F9012081318142815381C5017F
:104F0000B4010E94A63669AB7AAB8BAB9CAB77FA47
:104F1000709477F87094D501C401B0588B8F9C8F32
:104F2000AD8FBE8FF701E555F94F2DA53EA54FA5D5
:104F300058A960817181828193810E94A5366B019D
:104F40007C01F801E555F94F29A93AA94BA95CA9BB
:104F500060817181828193810E94A5364B015C0141
:104F6000A7019601C301B2010E94FD396DAB7EAB72
:104F70008FAB98AFA50194016B8D7C8D8D8D9E8D2F
:104F80000E94FD399B01AC016DA97EA98FA998AD46
:104F90000E94A6366DAB7EAB8FAB98AFA501940196
:104FA000C301B2010E94FD394B015C01A7019601CA
:104FB0006B8D7C8D8D8D9E8D0E94FD399B01AC018A
:104FC000C501B4010E94A5362DA93EA94FA958AD2F
:104FD0000E9425376B017C019BA192FF68C12DEBDC
:104FE00037E346E055EBC701B6010E94BD3987FDA6
:104FF0000AC02BED3FE049EC50E4C701B6010E9426
:10500000A5366B017C018090210690902206A0902D
:105010002306B09024062F8D38A149A15AA1CA01B8
:10502000B9010E94A636A50194010E94A536A501EA
:1050300094010E94FD390E949C3A4B015C0120E0E2
:1050400030E040E05FE3C701B6010E94FD392F8DDB
:1050500038A149A15AA10E94FD399F77A501940169
:105060000E94A5370E948A380E941E387EAB6DAB25
:10507000DB01AB2B09F47ACE1D8990E080E00E9421
:105080004D384B015C0113FF0EC0AC019B016D85D7
:105090007E858F8598890E94FD396D877E878F87F1
:1050A000988B177F1D8BA5019401C701B6010E9443
:1050B000A5376BA37CA38DA39EA32296EFAD229769
:1050C000B4E0EB9FC00111248C010B5A194F855598
:1050D000994FD8012D913D914D915C91FC016081DA
:1050E0007181828193810E94A536A50194010E945D
:1050F000A53729966CAF7DAF8EAF9FAF29972BA1B7
:105100003CA14DA15EA1CA01B9010E94FD399B01DC
:10511000AC0160E070E080E090E40E94A5366B0195
:105120007C012BEA3AEA4AE25EE36BA17CA18DA105
:105130009EA10E94FD394B015C0120E030E040E877
:1051400050E4C701B6010E94A6369B01AC01C5011F
:10515000B4010E94FD3921966CAF7DAF8EAF9FAF39
:10516000219720E030E040E05FE3C701B6010E94F4
:10517000FD3925966CAF7DAF8EAF9FAF25971F8E03
:1051800022242394312CEDA9FEA9E215F30509F49C
:10519000EDCDFF8DFC3008F09EC0A3019201219659
:1051A0006CAD7DAD8EAD9FAD21970E94FD396B0139
:1051B0007C012B8D3C8D4D8D5E8D25966CAD7DAD2E
:1051C0008EAD9FAD25970E94FD399B01AC01C701B3
:1051D000B6010E94A6367B016C01A30192012596BF
:1051E0006CAD7DAD8EAD9FAD25970E94FD394B0115
:1051F0005C012B8D3C8D4D8D5E8D21966CAD7DAD12
:105200008EAD9FAD21970E94FD399B01AC01C50178
:10521000B4010E94A5362B013C012F8D2F5F2F8FEB
:10522000470156018B8E9C8EAD8EBE8EA3019201DE
:105230006DA57EA58FA598A90E94A636EFA1F8A519
:1052400060837183828393832B8D3C8D4D8D5E8D26
:1052500069A97AA98BA99CA90E94A636A9ADBAAD65
:105260006D937D938D939C93139729962CAD3DADB3
:105270004EAD5FAD2997F801608171818281938184
:105280000E94A636D8016D937D938D939C931397BE
:10529000BE01635F7F4F85E596E00E94B71C809159
:1052A000DC0581116ACDBFEF2B1A3B0A6CCF2DEBC9
:1052B00037E346E055E3C701B6010E949B37181655
:1052C0000CF4A1CE2BED3FE049EC50E4C701B60150
:1052D0000E94A63696CEB10190E080E00E944D3843
:1052E0002BA13CA14DA15EA10E94FD396B017C0167
:1052F0000E94A0376B8F7C8F8D8F9E8FC701B60168
:105300000E948E3A4B015C01A9A5BAA5CD90DD9013
:10531000ED90FC90F7FAF094F7F8F094ABADBCADDB
:105320008D919D910D90BC91A02D8F8F98A3A9A3D5
:10533000BAA3A70196016B8D7C8D8D8D9E8D0E94E9
:10534000FD392B013C012F8D38A149A15AA1C5017E
:10535000B4010E94FD399B01AC01C301B2010E945E
:10536000A6362B013C01A7019601C501B4010E949C
:10537000FD396B017C012F8D38A149A15AA16B8D9C
:105380007C8D8D8D9E8D0E94FD399B01AC01C701E6
:10539000B6010E94A5366B8F7C8F8D8F9E8F1F8EDE
:1053A00045CF8D8984608D8B8091DB05823009F437
:1053B000E4CC0E94EC178091DC05811119C0FBA19F
:1053C000F071FF2E1092E0052BA123FB882780F9B6
:1053D0000E94B70386B180729091C105891719F1B7
:1053E00084E00E9439020E94031780E00E94B70304
:1053F0008091850680934406882311F40C94641EE2
:105400000E94EC17809144069091DB05833009F0EF
:105410004DC0923029F088E00E9449020E94031793
:1054200010924406FEC8B8018BEA96E00E94B71CB1
:1054300081E08093DA0582E00E9449020E9403170E
:105440008091DC058111D4CF8091DB058111F6CFED
:105450008091DA05813031F5FF2001F18CE0E2EC3A
:10546000F5E0AEECB5E001900D928A95E1F710926F
:10547000DA0580E00E94B7030E9403170E945612CB
:105480000E94100A0E945F060E9435068091E00586
:10549000882309F472CC0E944C09AACF85E00E94AF
:1054A0003902E5CF81E08093E005E1CF81E0809390
:1054B0003D06109241061092400610923E06109250
:1054C0004306109246061092450684E68093E20554
:1054D0008093E3058093E405923089F061E676E0FD
:1054E00080E00E944518882311F40C9407210E9443
:1054F0001E1880E00E94790380E00E94040A86EC76
:1055000092E00E94CD048DE592E00E94CD040E94BD
:10551000300686CF81E00C94641E82E00C94641EF9
:1055200088E10C94641E86E20C94641E89E10C945C
:10553000641E84E00C94641E8BE10C94641E85E26E
:105540000C94641E80E20C94641E82E20C94641E2F
:1055500084E20C94641E80E10C94641E8FE00C9431
:10556000641ECF93DF93C0E08C2F0E94FD17811142
:1055700014C01092B7068EE30E948E030E94AA0305
:105580008AE30E948E0387E00E94DF04C13019F491
:10559000DF91CF910895C1E0E7CF8091B7068823CE
:1055A000A9F30E94131DD82F8EE30E948E030E9440
:1055B000AA038AE30E948E038D2F0E94EB04E6CF9C
:1055C0002F923F924F925F926F927F928F929F9213
:1055D000AF92BF92CF92DF92EF92FF920F931F9301
:1055E000CF93DF93CDB7DEB7AB970FB6F894DEBF9E
:1055F0000FBECDBF9091DC059111A4C189A7FE011A
:105600003D9689E0DF011D928A95E9F786E08D8B52
:10561000E8EEF5E0FE8FED8F9E012A5E3F4F7901A7
:105620006F0110E000E0812C912C54018CE0382EA9
:1056300099A5892F90E098A38F8F802F202F94E039
:10564000002321F098E0013009F090E1223009F0C8
:10565000B3C0D7019C932F8D38A102C035952795F3
:105660008A95E2F720FF17C020E030E040EC5FEBC6
:10567000D60194966D917D918D919C9197970E9402
:10568000FD392B013C01A50194010E949B3787FD48
:1056900002C0420153010F5F1F4FB4E0CB0ED11C7B
:1056A000EFEFEE1AFE0A0330110539F6409033068B
:1056B00050903406609035067090360604E011E094
:1056C00062EC75E0CE0101960E948D028091CA05C0
:1056D0009091CB05A091CC05B091CD0589A39AA35B
:1056E000ABA3BCA380912E06A82FB0E0BBA7AAA7AE
:1056F000FE0131967F01C12CD12C312C212CD501FA
:10570000C401B0588DA39EA3AFA3B8A7298E8F8DD7
:1057100098A1022C02C0959587950A94E2F780FF24
:105720008FC0C39421104BC06091C2057091C30516
:105730008091C4059091C5052091C6053091C7059B
:105740004091C8055091C905621B730B840B950BE2
:1057500022E030E040E050E00E94483B2093C20548
:105760003093C3054093C4055093C50588279927F6
:10577000DC01821B930BA40BB50B8093C6059093A1
:10578000C705A093C805B093C9058AA59BA5098C38
:1057900002C0959587950A94E2F780FFECC011232B
:1057A00009F440C08DA19EA1AFA1B8A5F7018083E7
:1057B0009183A283B3833CC0F70130824CCFA98D83
:1057C000A13059F56091C2057091C3058091C4055F
:1057D0009091C5052091C6053091C7054091C80537
:1057E0005091C905620F731F841F951F22E030E09E
:1057F00040E050E00E94483B2093C6053093C70527
:105800004093C8055093C9052093C2053093C30542
:105810004093C4055093C505B8CF19A21AA21BA284
:105820001CA2B3CFD7018D929D92AD92BC921397DB
:10583000E6E1F0E0EC0FFD1FE20DF31D8081D82AB8
:10584000FFEF2F1A3F0A24E0E20EF11C33E023168B
:10585000310409F05BCF89A19AA1ABA1BCA18093CF
:10586000CA059093CB05A093CC05B093CD056C2DC4
:1058700070E090E080E00E944D380E949C3AD09207
:10588000E105A30192010E94FD396D877E878F8714
:10589000988BBE01635F7F4FCE0101960E94C318B3
:1058A00094E09093DF050E948D0A0E94600311230B
:1058B00021F10E9416096E899F89692B6095788D68
:1058C0007095FE01769630E020E090E041914D2108
:1058D00069F0AC01022E02C0559547950A94E2F793
:1058E00040FF04C0223009F04FC0D7222F5F3F4F46
:1058F0002330310559F7D092E1050E948D0A80913D
:10590000BD05847309F4FFC0F090BD05F4FE03C02B
:1059100086E00E943902F5FE03C087E00E9439024A
:10592000111149C10E941609A9A58A2319F088E01E
:105930000E9439028091BE05882341F10E9489129C
:105940000E940317AB960FB6F894DEBF0FBECDBF13
:10595000DF91CF911F910F91FF90EF90DF90CF904B
:10596000BF90AF909F908F907F906F905F904F907F
:105970003F902F900895112309F414CFF7018082EE
:105980009182A282B38254CFD622B0CF84E00E940B
:105990003F020E9456128091370690913806019777
:1059A00008F0B6C021E01227C0903906D0903A0620
:1059B000E0903B06F0903C06112309F4B0C020E0D3
:1059C00030E040EA50E4C701B6010E94FD394B01C6
:1059D0005C0140902F065090300660903106709028
:1059E0003206015009F06CCE20902E06312CD701E2
:1059F000C601B058898F9A8FAB8FBC8FA090CA0513
:105A0000B090CB050091CC051091CD05912C812C47
:105A10008F8D98A1082C02C0959587950A94E2F77E
:105A200080FF59C0AD8DBE8D4D905D906D907C9086
:105A30001397C101082C02C0959587950A94E2F747
:105A400080FF78C094962D913D914D915C919797F0
:105A5000C701B6010E94A636A30192010E94FD393A
:105A60000E94CA392B013C01882D81106AC06091C7
:105A7000C2057091C3058091C4059091C505209120
:105A8000C6053091C7054091C8055091C905621BF4
:105A9000730B840B950B22E030E040E050E00E9455
:105AA000483BD301C201820F931FA41FB51F8093EF
:105AB000C2059093C305A093C405B093C505421ACF
:105AC000530A640A750A4092C6055092C70560924F
:105AD000C8057092C905BFEF8B1A9B0AED8DFE8D2C
